:100000000C9464000C948C000C948C000C94C8012B
:100010000C94C8010C94C8010C948C000C948C00B6
:100020000C948C000C948C000C948C000C948C0020
:100030000C948C000C948C000C948C000C948C0010
:100040000C943F060C948C000C9436050C946805B7
:100050000C948C000C948C000C948C000C948C00F0
:100060000C948C000C948C0000000008000201002D
:100070000003040700000000000000000102040863
:100080001020408001020408102001020408102002
:10009000040404040404040402020202020203032E
:1000A00003030303000000002300260029000000D2
:1000B0000000250028002B0000000000240027007D
:1000C0002A00B3009805BA0011241FBECFEFD8E074
:1000D000DEBFCDBF11E0A0E0B1E0E0E8FEE002C08D
:1000E00005900D92AC33B107D9F722E0ACE3B1E053
:1000F00001C01D92A534B207E1F710E0C6ECD0E0D4
:1001000004C02297FE010E942F07C23CD107C9F705
:100110000E94DC050C9433070C94000026E040E0BC
:1001200052EC61E070E08FE991E00E94D40460E05D
:1001300071E08FE991E00E942D0640E052EC61E011
:1001400070E08CE391E00E94CB02E0913C01F091E1
:100150003D010280F381E02D44E050E068E071E071
:100160008CE391E0099420E043E062E08CE391E0CD
:100170000C949B028CE391E00C9442028CE391E09E
:100180000E947101892B79F08CE391E00E94E300D9
:10019000E0919F01F091A0010190F081E02D682F86
:1001A0008FE991E009958FE991E00E94F103892B95
:1001B00049F08FE991E00E940A04682F8CE391E0F6
:1001C0000C940401089520919D0130919E012817FF
:1001D0003907B9F490915B0180915C01981789F01F
:1001E000E0915B01F0E0E35AFE4F808120915B01DA
:1001F00030E02F5F3F4F2F73332720935B0190E058
:1002000008958FEF9FEF08951F93CF93DF93DC0145
:100210005C968D919C915D97009749F481E090E008
:1002200013969C938E93129780E090E03BC051967A
:10023000ED91FC91529750962C915097322F30951A
:100240001FB75E964C915E9741FB772770F941FD91
:100250006095F8944081772311F0422B01C043232D
:100260004083EC012197F1F748E0508160FF02C024
:10027000522B01C053235083EC012197F1F766956F
:10028000415099F78081772311F0832301C0822B9D
:1002900080831FBF5C968D919C915D970197F1F7CC
:1002A00081E090E0DF91CF911F9108950895209112
:1002B0009D0130919E012817390781F490915B01CF
:1002C00080915C01981751F0E0915B01F0E0E35AF6
:1002D000FE4F8081992787FD909508958FEF9FEFBE
:1002E000089520919D0130919E012817390771F4DE
:1002F00080915C0120915B0190E0805C9F4F821BAC
:10030000910960E470E00E94C406089580E090E0E6
:100310000895E0919D01F0919E01E817F90769F4B5
:10032000A389B4899C918589809589238C931092A7
:100330009E0110929D0181E0089580E00895CF9381
:10034000DF93EC018A8D9B8D892BF1F080919D01CB
:1003500090919E018C179D07B9F0009711F00E94B3
:1003600089018E8D8E7F8E8F10925C0110925B01C1
:10037000D0939E01C0939D01EB89FC8980819D896A
:10038000892B808381E001C080E0DF91CF910895C7
:100390001F920F920FB60F9211242F933F934F93FA
:1003A0005F936F937F938F939F93AF93BF93EF93DD
:1003B000FF93E0919D01F0919E01309709F451C0A7
:1003C000868DA685B785958581FF04C08C9189238C
:1003D00029F447C08C91892309F043C0A389B489CB
:1003E0009C918589809589238C938689978901972B
:1003F000F1F7208D318DA685B785758558E040E0F1
:10040000C9010197F1F7842F90E095958795482FC2
:100410006C91672309F04068515091F7868D81FDFA
:10042000409580915C0190E001968F73992720910F
:100430005B01281749F0A0915C01B0E0A35ABE4FC0
:100440004C9380935C0103C0868D8160868F828D82
:10045000938D0197F1F7A389B4898C919589892BA4
:100460008C93FF91EF91BF91AF919F918F917F916D
:100470006F915F914F913F912F910F900FBE0F9011
:100480001F90189521E131E0FC01318320830C9409
:1004900089011F93CF93DF93EC01162F6E8D669524
:1004A000617081E06827812F0E94BB0361E0812F8A
:1004B0000E948203812F90E0FC01E458FF4FE491F9
:1004C000E88BFC01E057FF4FE491F0E0EE0FFF1FD7
:1004D000E255FF4F859194919A8B898BDF91CF9153
:1004E0001F9108951F93CF93DF93EC01162F60E0C7
:1004F000812F0E9482038E8D81FD04C061E0812FD7
:100500000E94BB031C87812F90E0FC01E458FF4F41
:10051000E491ED87FC01E057FF4FE491F0E0EE0F2E
:10052000FF1FEC55FF4F859194919F878E87DF9138
:10053000CF911F910895FF920F931F93CF93DF9355
:10054000EC01F62E522F1B821A8208EE13E020E0F7
:1005500030E00C831D832E833F8381E191E09983FA
:1005600088831F8A1E8A198E188E1B8E1A8E1D8EE6
:100570001C8E8E8D8E7F50FB81F98E8F642FCE0165
:100580000E9449026F2DCE01DF91CF911F910F91F3
:10059000FF900C947202CF93DF93EC019A01AB01B0
:1005A0001B8E1A8E198E188E1F8A1E8A60E079E0C3
:1005B0008DE390E00E94FA06C9012430310520F055
:1005C000B9016350710902C061E070E07D8F6C8FEA
:1005D000EC85E63108F068C0B9017695679564311D
:1005E000710518F06351710902C061E070E07F8B02
:1005F0006E8B069718F0C901059702C081E090E064
:10060000998F888FC901880F991F820F931F969524
:100610008795969587958D30910510F00C9702C0BF
:1006200081E090E09B8F8A8F20916800E83050F045
:1006300091E0EE3008F490E081E001C0880F9A95D7
:10064000EAF701C084E0822B809368002C85283073
:1006500038F02E3040F0263148F48CE690E008C0A7
:100660008DE690E005C08BE690E002C080E090E06F
:100670009C8B8B8B283030F481E001C0880F2A9549
:10068000EAF70DC0822F90E02E3010F4089701C0D9
:100690000E9791E001C0990F8A95EAF7892F8D8B0B
:1006A0008C8D9D8D0197F1F7CE01DF91CF910C9448
:1006B0009F01833081F028F4813099F08230A1F0DD
:1006C00008958730A9F08830B9F08430D1F4809152
:1006D00080008F7D03C0809180008F7780938000A1
:1006E000089584B58F7702C084B58F7D84BD089549
:1006F0008091B0008F7703C08091B0008F7D809390
:10070000B0000895CF93DF9390E0FC01E458FF4FD1
:100710002491FC01E057FF4F8491882349F190E038
:10072000880F991FFC01E854FF4FA591B4918255A1
:100730009F4FFC01C591D4919FB7611108C0F894F7
:100740008C91209582238C93888182230AC0623009
:1007500051F4F8948C91322F309583238C938881B7
:10076000822B888304C0F8948C91822B8C939FBF3A
:10077000DF91CF9108950F931F93CF93DF931F9233
:10078000CDB7DEB7282F30E0F901E859FF4F84914B
:10079000F901E458FF4F1491F901E057FF4F04911C
:1007A0000023C9F0882321F069830E9459036981DD
:1007B000E02FF0E0EE0FFF1FE255FF4FA591B4913F
:1007C0009FB7F8948C91611103C01095812301C0EB
:1007D000812B8C939FBF0F90DF91CF911F910F9131
:1007E0000895FC01818D228D90E0805C9F4F821BDB
:1007F00091098F7399270895FC01918D828D981727
:1008000031F0828DE80FF11D858D90E008958FEF16
:100810009FEF0895FC01918D828D981761F0828D74
:10082000DF01A80FB11D5D968C91928D9F5F9F7324
:10083000928F90E008958FEF9FEF08958EE895E0F6
:10084000892B49F080E090E0892B29F00E948E05E9
:1008500081110C9400000895FC01848DDF01A80F24
:10086000B11DA35ABF4F2C91848D90E001968F73D8
:100870009927848FA689B7892C93A089B1898C91F7
:1008800080648C93938D848D981306C00288F389BD
:10089000E02D80818F7D80830895CF93DF93EC01DD
:1008A000888D8823C9F0EA89FB89808185FD05C090
:1008B000A889B9898C9186FD0FC00FB607FCF5CFCA
:1008C000808185FFF2CFA889B9898C9185FFEDCF12
:1008D000CE010E942C04E7CFDF91CF910895CF92F3
:1008E000DF92FF920F931F93CF93DF931F92CDB7A9
:1008F000DEB76C0181E0D60158968C9358975B96D1
:100900009C915B975C968C915C97981307C050966E
:10091000ED91FC915197808185FD2EC0F601038DEC
:1009200010E00F5F1F4F0F731127F02EF601848D1B
:10093000F81211C00FB607FCF9CFD6015096ED9111
:10094000FC915197808185FFF1CFC60169830E9498
:100950002C046981EBCF838DE80FF11DE35AFF4F23
:100960006083D6015B960C935B975296ED91FC9158
:100970005397808180620CC0D6015696ED91FC9110
:10098000579760835096ED91FC91519780818064D8
:10099000808381E090E00F90DF91CF911F910F91C4
:1009A000FF90DF90CF900895BF92CF92DF92EF92A9
:1009B000FF92CF93DF93EC016A017B01B22EE889AD
:1009C000F98982E08083411581EE58076105710540
:1009D000A1F060E079E08DE390E0A70196010E942C
:1009E000D806215031094109510956954795379547
:1009F0002795211580E1380798F0E889F989108258
:100A000060E874E88EE190E0A70196010E94D806A4
:100A10002150310941095109569547953795279538
:100A2000EC85FD853083EE85FF852083188EEC896B
:100A3000FD89B082EA89FB89808180618083EA89AF
:100A4000FB89808188608083EA89FB898081806856
:100A50008083EA89FB8980818F7D8083DF91CF91BC
:100A6000FF90EF90DF90CF90BF9008951F920F926C
:100A70000FB60F9211242F938F939F93EF93FF93B1
:100A8000E091AF01F091B0018081E091B501F0916A
:100A9000B60182FD12C090818091B8018F5F8F7383
:100AA0002091B901821751F0E091B801F0E0E156D0
:100AB000FE4F958F8093B80101C08081FF91EF9127
:100AC0009F918F912F910F900FBE0F901F901895AF
:100AD0001F920F920FB60F9211242F933F934F93B3
:100AE0005F936F937F938F939F93AF93BF93EF9396
:100AF000FF938FE991E00E942C04FF91EF91BF9149
:100B0000AF919F918F917F916F915F914F913F91A5
:100B10002F910F900FBE0F901F9018958FE991E0C5
:100B20000E94F10321E0892B09F420E0822F08952F
:100B30001092A2011092A10188EE93E0A0E0B0E033
:100B40008093A3019093A401A093A501B093A60163
:100B500081E291E09093A00180939F0185EC90E069
:100B60009093AC018093AB0184EC90E09093AE0144
:100B70008093AD0180EC90E09093B0018093AF0141
:100B800081EC90E09093B2018093B10182EC90E00F
:100B90009093B4018093B30186EC90E09093B601FA
:100BA0008093B5011092B8011092B9011092BA0168
:100BB0001092BB01089508950E9489060E94DB05EA
:100BC0000E948E00CEE1D4E00E94BE002097E1F3A7
:100BD0000E941E04F9CFCF92DF92EF92FF920F9303
:100BE0001F93CF93DF937C016A01EB0100E010E0DB
:100BF0000C151D0571F06991D701ED91FC910190E3
:100C0000F081E02DC7010995892B19F00F5F1F4F67
:100C1000EFCFC801DF91CF911F910F91FF90EF901F
:100C2000DF90CF9008956115710581F0DB010D9083
:100C30000020E9F7AD0141505109461B570BDC017B
:100C4000ED91FC910280F381E02D099480E090E029
:100C500008956AE071E00C9413060F931F93CF93ED
:100C6000DF93EC010E9413068C01CE010E9429063D
:100C7000800F911FDF91CF911F910F9108951F92C7
:100C80000F920FB60F9211242F933F938F939F9340
:100C9000AF93BF9380913D0290913E02A0913F029D
:100CA000B091400230913C0223E0230F2D3720F415
:100CB0000196A11DB11D05C026E8230F0296A11DB6
:100CC000B11D20933C0280933D0290933E02A0937D
:100CD0003F02B09340028091410290914202A09164
:100CE0004302B09144020196A11DB11D80934102BF
:100CF00090934202A0934302B0934402BF91AF91FC
:100D00009F918F913F912F910F900FBE0F901F9049
:100D10001895789484B5826084BD84B5816084BD63
:100D200085B5826085BD85B5816085BDEEE6F0E064
:100D3000808181608083E1E8F0E0108280818260C0
:100D40008083808181608083E0E8F0E08081816041
:100D50008083E1EBF0E0808184608083E0EBF0E071
:100D6000808181608083EAE7F0E080818460808315
:100D700080818260808380818160808380818068BF
:100D800080831092C100089597FB072E16F40094FB
:100D900007D077FD09D00E94190707FC05D03EF463
:100DA000909581959F4F0895709561957F4F089517
:100DB000A1E21A2EAA1BBB1BFD010DC0AA1FBB1F5F
:100DC000EE1FFF1FA217B307E407F50720F0A21BD1
:100DD000B30BE40BF50B661F771F881F991F1A943E
:100DE00069F760957095809590959B01AC01BD0168
:100DF000CF010895052E97FB1EF400940E94110761
:100E000057FD07D00E94D80607FC03D04EF40C947F
:100E1000110750954095309521953F4F4F4F5F4FAB
:100E2000089590958095709561957F4F8F4F9F4F56
:100E30000895AA1BBB1B51E107C0AA1FBB1FA61721
:100E4000B70710F0A61BB70B881F991F5A95A9F773
:100E500080959095BC01CD010895EE0FFF1F059080
:100E6000F491E02D099410E0C6ECD0E004C0FE013E
:100E70000E942F072296C83CD107C9F7F894FFCFEC
:100E8000537461727465640041540D0A00000000DF
:100E9000000401EB057101E3005701560100000059
:100EA000006F04EB05F1030A04FC034D046E616E50
:0C0EB00000696E66006F7666002E000080
:00000001FF
