:100000000C94E1000C9409010C9409010C946B050B
:100010000C946B050C946B050C9409010C9409016C
:100020000C9409010C9409010C9409010C94090128
:100030000C9409010C9409010C9409010C94090118
:100040000C94FC060C9409010C94D5090C94070A35
:100050000C9409010C9409010C9409010C940901F8
:100060000C9409010C940901000000080002010031
:100070000003040700000000000000000102040863
:100080001020408001020408102001020408102002
:10009000040404040404040402020202020203032E
:1000A00003030303000000002300260029000000D2
:1000B0000000250028002B0000000000240027007D
:1000C0002A0000407A10F35A00A0724E180900105E
:1000D000A5D4E80000E87648170000E40B540200BD
:1000E00000CA9A3B000000E1F505000080969800E8
:1000F000000040420F000000A08601000000102711
:1001000000000000E80300000000640000000000A0
:100110000A00000000000100000000002C76D888D2
:10012000DC674F0823DFC1DFAE59E1B1B796E5E3E5
:10013000E453C63AE651997696E8E6C28426EB89FE
:100140008C9B62ED407C6FFCEFBC9C9F40F2BAA59B
:100150006FA5F490055A2AF75C936B6CF9676DC133
:100160001BFCE0E40D47FEF520E6B500D0ED902E37
:100170000300943577050080841E080000204E0A95
:10018000000000C80C333333330F986E12831141D3
:10019000EF8D2114893BE65516CFFEE6DB18D1849E
:1001A0004B381BF77C1D901DA4BBE42420328472C5
:1001B0005E228100C9F124ECA1E53D271701370A31
:1001C0002A0111241FBECFEFD8E0DEBFCDBF13E060
:1001D000A0E0B1E0E4E7FEE202C005900D92AC368B
:1001E000B107D9F724E0ACE6B3E001C01D92A13914
:1001F000B207E1F711E0C0ECD1E004C02297FE01A4
:100200000E942B12CC3BD107C9F70E947B0A0C94A9
:100210002D170C9400008CE693E00E94BA0D82E743
:1002200093E00E94BA0D88E793E00C94E50520E086
:1002300043E062E088E793E00E943E0667E071E0F9
:1002400082E793E00E94280E67E171E08CE693E07C
:100250000C94280E0C940B018F929F92AF92BF9238
:10026000CF92DF92EF92FF920F931F93CF93DF9382
:10027000CDB7DEB7E4970FB6F894DEBF0FBECDBFA3
:100280006B017C0149015A0164EE71E0CE018F9649
:100290000E94280E8E010F5F1F4F21E044E0C7012E
:1002A000B6010E942F12BC01CE0189960E94280E31
:1002B00022E0B501A401CE0183960E94E40E63E220
:1002C00071E0CE0141960E94280EBE01675D7F4F0E
:1002D000CE0141960E94530F6BE271E00E94660FBF
:1002E000BE016D5D7F4F0E94530FBC01CE014D9644
:1002F0000E948B0ECE0141960E94BA0D69A17AA18F
:100300004AE0CE0147960E94B80E64E371E0CE0148
:1003100041960E94280EBE01695E7F4FCE01419634
:100320000E94530F60EE71E00E94660FBC01CE0187
:100330008F960E94740ECE0141960E94BA0DCE0196
:1003400047960E94BA0D65EE71E088E793E00E943F
:10035000D60A67E572E088E793E00E94AF0D61E19D
:1003600072E080EF93E00E94F50A68EE73E080E0AF
:1003700090E00E94750760E372E088E793E00E94D6
:10038000D60A6CE372E088E793E00E94AF0D69A1A2
:100390007AA18BA99CA9680F791F4AE0CE014196EA
:1003A0000E94B80EBE016F5E7F4F88E793E00E9407
:1003B000E30ACE0141960E94BA0D6EE372E080EF2F
:1003C00093E00E94F50A68EE73E080E090E00E94FE
:1003D0007507BE01615D7F4F88E793E00E94C80A00
:1003E000BE01635E7F4F88E793E00E94C80A62E522
:1003F00072E088E793E00E94AF0D6AE572E080EF5B
:1004000093E00E94F50A64EE71E0CE0147960E94E7
:10041000280E0E9446076B017C016BE772E0CE015B
:1004200041960E94280EBE016F5E7F4FCE01479617
:100430000E949C0F5C01CE0141960E94BA0DAB2038
:10044000A09459F40E9446076C197D098E099F09F2
:10045000693B7B4081059105A0F16CE672E080EF7D
:1004600093E00E94F50ABE01695E7F4F80EF93E042
:100470000E94E30ACE0147960E94BA0DCE014D9626
:100480000E94BA0DCE0183960E94BA0DCE018996C4
:100490000E94BA0DCE018F960E94BA0DE4960FB657
:1004A000F894DEBF0FBECDBFDF91CF911F910F91AA
:1004B000FF90EF90DF90CF90BF90AF909F908F9084
:1004C000089588E793E00E941405892B09F4A5CFCD
:1004D00088E793E00E948604682FCE0147960E9429
:1004E000400FEFCFCF92DF92EF92FF9280E10E9418
:1004F000DB0790939E0380939D0368EE73E080E09A
:1005000090E00E9475076091970370919803809125
:10051000990390919A030E94721070939C036093C8
:100520009B03672B59F480E10E94DB0790939C03A7
:1005300080939B0390939E0380939D0360919D0302
:1005400070919E03882777FD8095982F0E94A510B3
:100550002DEC3CEC4CEC5DE30E9459116B017C01ED
:1005600060919B0370919C03882777FD8095982F5D
:100570000E94A51026E636E646E65FE30E94591182
:100580009B01AC01C701B6010E94A20F60939703C3
:10059000709398038093990390939A0368EE73E0A5
:1005A00080E090E00E9475072EE53AEB49E85FE3B2
:1005B00060919703709198038091990390919A03A9
:1005C0000E94591120E030EC4FE754E40E940A10D9
:1005D00020E030E048EC52E40E94591160939F0300
:1005E0007093A0038093A1039093A20362E872E04A
:1005F00080EF93E00E94D60A4091970350919803B0
:100600006091990370919A0322E030E080EF93E0CB
:100610000E94AD0C6AE872E080EF93E00E94D60A77
:1006200060919D0370919E034AE050E080EF93E05B
:100630000E94AA0B64EA72E080EF93E00E94D60A5F
:1006400040919F035091A0036091A1037091A20378
:1006500021E030E080EF93E00E94AD0C2091970301
:10066000309198034091990350919A0360919F03B0
:100670007091A0038091A1039091A2030E942C018C
:1006800060E375E780E090E0FF90EF90DF90CF901F
:100690000C9475078F929F92BF92CF92DF92EF9248
:1006A000FF920F931F93CF93DF9300D000D000D021
:1006B000CDB7DEB78C017B014A01B22E88E793E00B
:1006C0000E94C80AB70180EF93E00E94E30A0E94EB
:1006D00046076B017C0164EE71E0C8010E94280EA0
:1006E000A401662757FD6095762FC40ED51EE61E21
:1006F000F71E0E9446076C157D058E059F0518F5AF
:1007000088E793E00E941405892B49F088E793E07D
:100710000E948604682FC8010E94400FF1CF67E550
:1007200072E0CE0101960E94280EBE016F5F7F4FDE
:10073000C8010E949C0F4C01CE0101960E94BA0D87
:1007400089208094B1F2BB2029F0B80180EF93E0BA
:100750000E94C80AC80126960FB6F894DEBF0FBEE5
:10076000CDBFDF91CF911F910F91FF90EF90DF9060
:10077000CF90BF909F908F9008950F931F93CF932A
:10078000DF93CDB7DEB762970FB6F894DEBF0FBE2A
:10079000CDBF61EC72E0CE0107960E94280E21E0E9
:1007A00048EE53E0BE01695F7F4FCE0101960E9483
:1007B0004A03CE0101960E94BA0DCE0107960E940F
:1007C000BA0D6FEC72E0CE010D960E94280E62E722
:1007D00073E0CE010D960E94530F6AED72E00E9405
:1007E000660F6CE673E00E94530F6EED72E00E949C
:1007F000660FBC01CE0107960E948B0E21E040E1FE
:1008000057E2BE01695F7F4FCE0101960E944A0305
:10081000CE0101960E94BA0DCE0107960E94BA0D34
:10082000CE010D960E94BA0D64EE71E0CE010D96D8
:100830000E94280E62EE72E0CE0107960E94280EFA
:1008400021E040E45FE1BE01695F7F4FCE01019688
:100850000E944A03BE016F5F7F4FCE010D960E943A
:10086000940ECE0101960E94BA0DCE0107960E9409
:10087000BA0D6DEE72E0CE0101960E94280EBE0107
:100880006F5F7F4FCE010D960E949C0F8C01CE01B1
:1008900001960E94BA0DCE010D960E94BA0D81E01C
:1008A0000F3F1F4F09F080E062960FB6F894DEBF4D
:1008B0000FBECDBFDF91CF911F910F91089583E0BF
:1008C0000E94D80726E040E052EC61E070E080EF43
:1008D00093E00E94730940E052EC61E070E088E729
:1008E00093E00E946E0668EE73E080E090E00E9464
:1008F00075070E94BD03811103C062EF72E002C060
:1009000064E173E080EF93E00C94F50A2091E50335
:100910003091E60328173907B9F49091A303809129
:10092000A403981789F0E091A303F0E0EB55FC4F86
:1009300080812091A30330E02F5F3F4F2F73332737
:100940002093A30390E008958FEF9FEF08951F93E6
:10095000CF93DF93DC015C968D919C915D9700971E
:1009600049F481E090E013969C938E93129780E077
:1009700090E03BC05196ED91FC91529750962C918E
:100980005097322F30951FB75E964C915E9741FB82
:10099000772770F941FD6095F8944081772311F035
:1009A000422B01C043234083EC012197F1F748E03B
:1009B000508160FF02C0522B01C053235083EC01D1
:1009C0002197F1F76695415099F78081772311F0CF
:1009D000832301C0822B80831FBF5C968D919C91E5
:1009E0005D970197F1F781E090E0DF91CF911F9142
:1009F000089508952091E5033091E60328173907FB
:100A000081F49091A3038091A403981751F0E09191
:100A1000A303F0E0EB55FC4F8081992787FD90956B
:100A200008958FEF9FEF08952091E5033091E6033D
:100A30002817390771F48091A4032091A30390E053
:100A4000805C9F4F821B910960E470E00E94C0119E
:100A5000089580E090E00895E091E503F091E603C9
:100A6000E817F90769F4A389B4899C918589809571
:100A700089238C931092E6031092E50381E0089598
:100A800080E00895CF93DF93EC018A8D9B8D892BB5
:100A9000F1F08091E5039091E6038C179D07B9F082
:100AA000009711F00E942C058E8D8E7F8E8F1092F4
:100AB000A4031092A303D093E603C093E503EB894C
:100AC000FC8980819D89892B808381E001C080E041
:100AD000DF91CF9108951F920F920FB60F921124BC
:100AE0002F933F934F935F936F937F938F939F9336
:100AF000AF93BF93EF93FF93E091E503F091E6038B
:100B0000309709F451C0868DA685B785958581FFFC
:100B100004C08C91892329F447C08C91892309F062
:100B200043C0A389B4899C918589809589238C933E
:100B3000868997890197F1F7208D318DA685B78534
:100B4000758558E040E0C9010197F1F7842F90E0E6
:100B500095958795482F6C91672309F0406851500F
:100B600091F7868D81FD40958091A40390E00196D8
:100B70008F7399272091A303281749F0A091A4030C
:100B8000B0E0AB55BC4F4C938093A40303C0868D5B
:100B90008160868F828D938D0197F1F7A389B48947
:100BA0008C919589892B8C93FF91EF91BF91AF9197
:100BB0009F918F917F916F915F914F913F912F9175
:100BC0000F900FBE0F901F90189522E433E0FC01A8
:100BD000318320830C942C051F93CF93DF93EC017A
:100BE000162F6E8D6695617081E06827812F0E94B7
:100BF0005A0861E0812F0E942108812F90E0FC01BA
:100C0000E458FF4FE491E88BFC01E057FF4FE4917B
:100C1000F0E0EE0FFF1FE255FF4F859194919A8B04
:100C2000898BDF91CF911F9108951F93CF93DF930D
:100C3000EC01162F60E0812F0E9421088E8D81FD2E
:100C400004C061E0812F0E945A081C87812F90E028
:100C5000FC01E458FF4FE491ED87FC01E057FF4FA2
:100C6000E491F0E0EE0FFF1FEC55FF4F859194915A
:100C70009F878E87DF91CF911F910895FF920F93E9
:100C80001F93CF93DF93EC01F62E522F1B821A8213
:100C900008EE13E020E030E00C831D832E833F83B9
:100CA00082E493E0998388831F8A1E8A198E188EA6
:100CB0001B8E1A8E1D8E1C8E8E8D8E7F50FB81F9A1
:100CC0008E8F642FCE010E94EC056F2DCE01DF9137
:100CD000CF911F910F91FF900C941506CF93DF9346
:100CE000EC019A01AB011B8E1A8E198E188E1F8A89
:100CF0001E8A60E079E08DE390E00E94F611C90160
:100D00002430310520F0B9016350710902C061E05F
:100D100070E07D8F6C8FEC85E63108F068C0B9011A
:100D2000769567956431710518F06351710902C0B9
:100D300061E070E07F8B6E8B069718F0C901059714
:100D400002C081E090E0998F888FC901880F991FB8
:100D5000820F931F96958795969587958D3091056F
:100D600010F00C9702C081E090E09B8F8A8F209159
:100D70006800E83050F091E0EE3008F490E081E057
:100D800001C0880F9A95EAF701C084E0822B809316
:100D900068002C85283038F02E3040F0263148F499
:100DA0008CE690E008C08DE690E005C08BE690E010
:100DB00002C080E090E09C8B8B8B283030F481E087
:100DC00001C0880F2A95EAF70DC0822F90E02E30DF
:100DD00010F4089701C00E9791E001C0990F8A9511
:100DE000EAF7892F8D8B8C8D9D8D0197F1F7CE01C0
:100DF000DF91CF910C9442051F920F920FB60F9284
:100E000011242F933F938F939F93AF93BF93809120
:100E1000E8039091E903A091EA03B091EB033091CC
:100E2000E70323E0230F2D3720F40196A11DB11D08
:100E300005C026E8230F0296A11DB11D2093E703EC
:100E40008093E8039093E903A093EA03B093EB0344
:100E50008091EC039091ED03A091EE03B091EF032C
:100E60000196A11DB11D8093EC039093ED03A09317
:100E7000EE03B093EF03BF91AF919F918F913F919C
:100E80002F910F900FBE0F901F9018952FB7F894C9
:100E90006091E8037091E9038091EA039091EB037C
:100EA0002FBF08953FB7F8948091EC039091ED0324
:100EB000A091EE03B091EF0326B5A89B05C02F3F8C
:100EC00019F00196A11DB11D3FBF6627782F892F0C
:100ED0009A2F620F711D811D911D42E0660F771FD1
:100EE000881F991F4A95D1F70895CF92DF92EF920C
:100EF000FF92CF93DF936B017C010E945207EB01BD
:100F0000C114D104E104F10489F00E94A00F0E94F1
:100F100052076C1B7D0B683E734090F381E0C81A4A
:100F2000D108E108F108C851DC4FEACFDF91CF9139
:100F3000FF90EF90DF90CF900895789484B5826011
:100F400084BD84B5816084BD85B5826085BD85B56D
:100F5000816085BDEEE6F0E0808181608083E1E81C
:100F6000F0E0108280818260808380818160808354
:100F7000E0E8F0E0808181608083E1EBF0E0808157
:100F800084608083E0EBF0E0808181608083EAE729
:100F9000F0E08081846080838081826080838081B2
:100FA000816080838081806880831092C100089571
:100FB0008093060108958E3008F08E50877020913E
:100FC000060190E4299F90011124822B80937C00DC
:100FD00080917A00806480937A0080917A0086FD07
:100FE000FCCF809178002091790090E0922B0895B9
:100FF000833081F028F4813099F08230A1F0089597
:101000008730A9F08830B9F08430D1F48091800025
:101010008F7D03C0809180008F778093800008953A
:1010200084B58F7702C084B58F7D84BD089580918B
:10103000B0008F7703C08091B0008F7D8093B000A7
:101040000895CF93DF9390E0FC01E458FF4F249183
:10105000FC01E057FF4F8491882349F190E0880F0D
:10106000991FFC01E854FF4FA591B49182559F4F01
:10107000FC01C591D4919FB7611108C0F8948C917F
:10108000209582238C93888182230AC0623051F498
:10109000F8948C91322F309583238C938881822B06
:1010A000888304C0F8948C91822B8C939FBFDF912E
:1010B000CF9108950F931F93CF93DF931F92CDB7D6
:1010C000DEB7282F30E0F901E859FF4F8491F9018C
:1010D000E458FF4F1491F901E057FF4F04910023AA
:1010E000C9F0882321F069830E94F8076981E02F05
:1010F000F0E0EE0FFF1FE255FF4FA591B4919FB7AF
:10110000F8948C91611103C01095812301C0812B4B
:101110008C939FBF0F90DF91CF911F910F910895F6
:10112000FC01818D228D90E0805C9F4F821B910994
:101130008F7399270895FC01918D828D981731F056
:10114000828DE80FF11D858D90E008958FEF9FEF60
:101150000895FC01918D828D981761F0828DDF01D9
:10116000A80FB11D5D968C91928D9F5F9F73928F9A
:1011700090E008958FEF9FEF08958DE29AE0892B1C
:1011800049F080E090E0892B29F00E942D0A81111E
:101190000C9400000895FC01848DDF01A80FB11D9F
:1011A000A35ABF4F2C91848D90E001968F7399279D
:1011B000848FA689B7892C93A089B1898C9180648A
:1011C0008C93938D848D981306C00288F389E02D4B
:1011D00080818F7D80830895CF93DF93EC01888D8C
:1011E0008823C9F0EA89FB89808185FD05C0A8892B
:1011F000B9898C9186FD0FC00FB607FCF5CF8081B1
:1012000085FFF2CFA889B9898C9185FFEDCFCE01FA
:101210000E94CB08E7CFDF91CF910895CF92DF9264
:10122000FF920F931F93CF93DF931F92CDB7DEB73B
:101230006C0181E0D60158968C9358975B969C91EF
:101240005B975C968C915C97981307C05096ED91D4
:10125000FC915197808185FD2EC0F601038D10E031
:101260000F5F1F4F0F731127F02EF601848DF812B8
:1012700011C00FB607FCF9CFD6015096ED91FC9145
:101280005197808185FFF1CFC60169830E94CB0809
:101290006981EBCF838DE80FF11DE35AFF4F608327
:1012A000D6015B960C935B975296ED91FC91539708
:1012B000808180620CC0D6015696ED91FC915797C3
:1012C00060835096ED91FC9151978081806480837A
:1012D00081E090E00F90DF91CF911F910F91FF90EF
:1012E000DF90CF900895BF92CF92DF92EF92FF925E
:1012F000CF93DF93EC016A017B01B22EE889F98973
:1013000082E08083411581EE580761057105A1F0E7
:1013100060E079E08DE390E0A70196010E94D4118E
:10132000215031094109510956954795379527951F
:10133000211580E1380798F0E889F989108260E882
:1013400074E88EE190E0A70196010E94D41121502B
:101350003109410951095695479537952795EC85EF
:10136000FD853083EE85FF852083188EEC89FD890D
:10137000B082EA89FB89808180618083EA89FB8968
:10138000808188608083EA89FB898081806880838E
:10139000EA89FB8980818F7D8083DF91CF91FF90E7
:1013A000EF90DF90CF90BF9008951F920F920FB6ED
:1013B0000F9211242F938F939F93EF93FF93E091BC
:1013C0000004F09101048081E0910604F09107048B
:1013D00082FD12C09081809109048F5F8F732091EC
:1013E0000A04821751F0E0910904F0E0E051FC4F4B
:1013F000958F8093090401C08081FF91EF919F91A7
:101400008F912F910F900FBE0F901F9018951F92E4
:101410000F920FB60F9211242F933F934F935F9328
:101420006F937F938F939F93AF93BF93EF93FF93AC
:1014300080EF93E00E94CB08FF91EF91BF91AF91B5
:101440009F918F917F916F915F914F913F912F91DC
:101450000F900FBE0F901F90189580EF93E00E94A1
:10146000900821E0892B09F420E0822F0895109242
:10147000F3031092F20388EE93E0A0E0B0E08093D3
:10148000F4039093F503A093F603B093F70382E57A
:1014900093E09093F1038093F00385EC90E09093B8
:1014A000FD038093FC0384EC90E09093FF03809312
:1014B000FE0380EC90E0909301048093000481ECA3
:1014C00090E0909303048093020482EC90E0909368
:1014D00005048093040486EC90E0909307048093C5
:1014E00006041092090410920A0410920B04109240
:1014F0000C04089508950E949D070E947A0A0E9494
:101500005F04CDEBD8E00E9472022097E1F30E94C5
:10151000BD08F9CFCF92DF92EF92FF920F931F9306
:10152000CF93DF937C016A01EB0100E010E00C1522
:101530001D0571F06991D701ED91FC910190F08149
:10154000E02DC7010995892B19F00F5F1F4FEFCFD1
:10155000C801DF91CF911F910F91FF90EF90DF9025
:10156000CF9008956115710581F0DB010D90002089
:10157000E9F7AD0141505109461B570BDC01ED91D4
:10158000FC910280F381E02D099480E090E00895C1
:10159000DC01ED91FC91DB0114964D915C91159766
:1015A0006D917C910280F381E02D09940C94B20A34
:1015B000DC01ED91FC910190F081E02D099462EE47
:1015C00071E00C94B20A0F931F93CF93DF93EC0159
:1015D0000E94C80A8C01CE010E94DF0A800F911F71
:1015E000DF91CF911F910F9108950F931F93CF9388
:1015F000DF93EC010E94B20A8C01CE010E94DF0A47
:10160000800F911FDF91CF911F910F9108958F92BD
:101610009F92AF92BF92CF92DF92EF92FF920F9381
:101620001F93CF93DF93CDB7DEB7A1970FB6F89492
:10163000DEBF0FBECDBF7C01C42EE52FCB01D22E65
:1016400019A221E02D1510F02AE0D22E8E010F5D97
:101650001F4F8D2C912CA12CB12C6C2D7E2FA50110
:1016600094010E94D4118C2DD29E80191124015016
:1016700011098A3014F4805D01C0895CF80180830F
:10168000211531054105510521F0C22EE32FCA0174
:10169000E4CFB801C7010E94B20AA1960FB6F89430
:1016A000DEBF0FBECDBFDF91CF911F910F91FF9095
:1016B000EF90DF90CF90BF90AF909F908F90089564
:1016C000CF92DF92EF92FF920F931F93CF93DF930E
:1016D000EC016A017B012115310579F4E881F9817A
:1016E0000190F081E02D642FDF91CF911F910F9138
:1016F000FF90EF90DF90CF9009942A303105E9F404
:1017000077FF1AC06DE20E94D80A8C014427552742
:10171000BA014C195D096E097F092AE0CE010E94C9
:10172000070B800F911FDF91CF911F910F91FF90B9
:10173000EF90DF90CF9008952AE0B701A601CE0187
:10174000DF91CF911F910F91FF90EF90DF90CF909D
:101750000C94070B0F931F93CF93DF93EC019A0127
:10176000AB01662757FD6095762F0E94600B8C01B8
:10177000CE010E94DF0A800F911FDF91CF911F9150
:101780000F9108954F925F926F927F928F929F92E6
:10179000AF92BF92CF92DF92EF92FF920F931F937F
:1017A000CF93DF93EC016A017B01B22E9A01AB016A
:1017B000C701B6010E94BC11882319F06EE573E0E1
:1017C00027C026013701E89477F82FEF3FEF4FE766
:1017D0005FE7C301B2010E94BC1181110DC02FEF60
:1017E0003FEF4FE75FE7C301B2010E9406101816F2
:1017F0001CF462E673E00CC02FEF3FEF4FE75FE4AD
:10180000C701B6010E9455111816ACF466E673E0E4
:10181000CE01DF91CF911F910F91FF90EF90DF905C
:10182000CF90BF90AF909F908F907F906F905F9080
:101830004F900C94B20A2FEF3FEF4FE75FECC701D8
:10184000B6010E94061087FDE1CF20E030E0A9013B
:10185000C701B6010E94061087FF0AC06DE2CE01E3
:101860000E94D80A8C01F7FAF094F7F8F09402C0BD
:1018700000E010E0A12C60E070E080E09FE3AB149A
:1018800041F020E030E040E251E40E940A10A394CD
:10189000F6CF9B01AC01C701B6010E94A20F6B01FC
:1018A0007C010E9477102B013C010E94A3109B0138
:1018B000AC01C701B6010E94A10F6B017C012AE0B7
:1018C000B301A201CE010E94070B080F191FBB2014
:1018D00039F06AE673E0CE010E94B20A080F191FC0
:1018E0007B2C772041F120E030E040E251E4C70159
:1018F000B6010E9459116B017C010E9472104B01CC
:10190000AA2497FCA094BA2C2AE030E0B501A401E7
:10191000CE010E94600B080F191FC501B4010E947F
:10192000A5109B01AC01C701B6010E94A10F6B017C
:101930007C017A94D6CFC801DF91CF911F910F918E
:10194000FF90EF90DF90CF90BF90AF909F908F90DF
:101950007F906F905F904F9008950F931F93CF9358
:10196000DF93EC010E94C20B8C01CE010E94DF0AC2
:10197000800F911FDF91CF911F910F9108950F93C9
:101980001F93CF93DF93EC010E9446076887798706
:101990008A879B87E881F9810680F781E02DCE0157
:1019A000099597FF15C00E944607088519852A8565
:1019B0003B85601B710B820B930B0C811D812E816B
:1019C0003F81601771078207930720F38FEF9FEF26
:1019D000DF91CF911F910F9108954F925F926F9277
:1019E0007F928F929F92AF92BF92CF92DF92EF92AF
:1019F000FF920F931F93CF93DF934C01EB0186E08F
:101A0000849F8001859F100D1124060F171FFB0175
:101A1000E017F10708F582819381892B21F1369631
:101A2000F7CF4081518164817581DA01A60FB71F1C
:101A30002C91332727FD30958217930711F56F5F9F
:101A40007F4F75836483228133816217730759F056
:101A50003696E017F10728F3C4010E94BF0C97FDEA
:101A600046C0FE01F6CFEC1BFD0BF595E7952BEA82
:101A70003AEAE29FC001E39F900DF29F900D11247E
:101A800038C06115710521F3A480B58095012150FE
:101A9000310935832483DA01A20FB31FAC91BB2730
:101AA000A7FDB0958A179B07F9F421153105C9F0F8
:101AB0006A017B01E21AF30AE40EF51E412C512C57
:101AC000D6016D906D01D7017D907D01671006C034
:101AD000BFEF4B1A5B0A4216530690F342165306A9
:101AE00099F6B582A482B4CF232B71F6B1CF8FEFD4
:101AF0009FEFDF91CF911F910F91FF90EF90DF90BB
:101B0000CF90BF90AF909F908F907F906F905F909D
:101B10004F900895CF93DF9300D000D000D0CDB781
:101B2000DEB7FE01319626E0DF011D922A95E9F726
:101B30007A8369835C834B8341E050E0BF010E945C
:101B4000ED0C21E0892B09F020E0822F26960FB6BC
:101B5000F894DEBF0FBECDBFDF91CF910895FB019A
:101B600001900020E9F7AF0141505109461B570B86
:101B70000C948A0DFC01808191810C94E812CF9322
:101B8000DF93EC0188819981009711F00E94E8129F
:101B9000198218821D821C821B821A82DF91CF91CA
:101BA00008950F931F93CF93DF93EC018B016F5F29
:101BB0007F4F888199810E947713009731F0998334
:101BC00088831B830A8381E001C080E0DF91CF918D
:101BD0001F910F910895CF93DF93EC018881998134
:101BE000892B29F08A819B818617970760F4CE01A3
:101BF0000E94D10D882341F08C819D81892B19F49D
:101C0000E881F981108281E0DF91CF910895EF9210
:101C1000FF920F931F93CF93DF93EC017B018A0117
:101C2000BA010E94EB0D811104C0CE010E94BF0DCC
:101C300007C01D830C83B701888199810E944A14D3
:101C4000CE01DF91CF911F910F91FF90EF900895FA
:101C5000FC01118210821382128215821482611596
:101C6000710559F0FB0101900020E9F7AF014150E7
:101C70005109461B570B0C94070E08950F931F93A1
:101C8000CF93DF938C01EB01FC0180819181009760
:101C900099F0428153812C813D814217530750F0C6
:101CA000688179810E944A148C819D81F801958315
:101CB000848313C00E94E81288819981F80191837E
:101CC00080838A819B81938382838C819D8195838C
:101CD0008483198218821B821A821D821C82DF91E2
:101CE000CF911F910F910895CF93DF93EC01FB01EA
:101CF0008617970761F0608171816115710529F080
:101D0000448155810E94070E02C00E94BF0DCE0182
:101D1000DF91CF910895FC0111821082138212820B
:101D2000158214820C94740ECF93DF93EC01861706
:101D3000970711F00E943E0ECE01DF91CF910895DA
:101D4000CF93DF93EC016115710561F0FB01019008
:101D50000020E9F7AF0141505109461B570B0E9483
:101D6000070E02C00E94BF0DCE01DF91CF910895F2
:101D70000F931F93CF93DF93CDB7DEB761970FB665
:101D8000F894DEBF0FBECDBF8C01CB01F8011182EC
:101D90001082138212821582148250E0BE016F5F9E
:101DA0007F4F0E946B14BE016F5F7F4FC8010E947E
:101DB000A00E61960FB6F894DEBF0FBECDBFDF91C7
:101DC000CF911F910F910895EF92FF920F931F9360
:101DD000CF93DF93CDB7DEB7A1970FB6F894DEBFF0
:101DE0000FBECDBF7C01CB01BA01F7011182108279
:101DF000138212821582148242E0420F8E010F5F1D
:101E00001F4F0E942F12BC01C7010E94A00EA19675
:101E10000FB6F894DEBF0FBECDBFDF91CF911F91FB
:101E20000F91FF90EF900895EF92FF920F931F9301
:101E3000CF93DF93EC017B010C811D81611571054E
:101E400011F480E016C04115510591F0040F151FE3
:101E5000B8010E94EB0D8823A1F3288139818C8180
:101E60009D81B701820F931F0E944A141D830C832A
:101E700081E0DF91CF911F910F91FF90EF90089536
:101E8000CF93DF9300D0CDB7DEB769831A8241E0EC
:101E900050E0BE016F5F7F4F0E94140F0F900F90B4
:101EA000DF91CF910895CF93DF93EC01FB01448143
:101EB0005581608171810E94140F811103C0CE0190
:101EC0000E94BF0DCE01DF91CF910895CF93DF9394
:101ED000EC016115710569F0FB0101900020E9F743
:101EE000AF0141505109461B570B0E94140F81113D
:101EF00003C0CE010E94BF0DCE01DF91CF910895A6
:101F0000CF93DF93FC01848195814817590778F4BA
:101F1000C081D181FB0160817181CE01840F951F49
:101F20000E945114009719F08C1B9D0B02C08FEF7B
:101F30009FEFDF91CF91089540E050E00C94800F27
:101F400008955058BB27AA270ED075C166D130F02E
:101F50006BD120F031F49F3F11F41EF45BC10EF4FD
:101F6000E095E7FB51C1E92F77D180F3BA176207FB
:101F700073078407950718F071F49EF58FC10EF46E
:101F8000E0950B2EBA2FA02D0B01B90190010C0189
:101F9000CA01A0011124FF27591B99F0593F50F4A1
:101FA000503E68F11A16F040A22F232F342F4427F9
:101FB000585FF3CF469537952795A795F0405395F1
:101FC000C9F77EF41F16BA0B620B730B840BBAF0C1
:101FD0009150A1F0FF0FBB1F661F771F881FC2F72C
:101FE0000EC0BA0F621F731F841F48F48795779540
:101FF0006795B795F7959E3F08F0B3CF9395880FF7
:1020000008F09927EE0F979587950895D9D008F491
:1020100081E008950CD00FC107D140F0FED030F020
:1020200021F45F3F19F0F0C0511139C1F3C014D150
:1020300098F39923C9F35523B1F3951B550BBB278F
:10204000AA2762177307840738F09F5F5F4F220F3C
:10205000331F441FAA1FA9F333D00E2E3AF0E0E835
:1020600030D091505040E695001CCAF729D0FE2F81
:1020700027D0660F771F881FBB1F26173707480713
:10208000AB07B0E809F0BB0B802DBF01FF279358C9
:102090005F4F2AF09E3F510568F0B6C000C15F3F18
:1020A000ECF3983EDCF3869577956795B795F795B1
:1020B0009F5FC9F7880F911D9695879597F90895A9
:1020C000E1E0660F771F881FBB1F62177307840745
:1020D000BA0720F0621B730B840BBA0BEE1F88F754
:1020E000E095089504D06894B111D9C00895BCD08A
:1020F00088F09F5790F0B92F9927B751A0F0D1F0F1
:10210000660F771F881F991F1AF0BA95C9F712C07A
:10211000B13081F0C3D0B1E00895C0C0672F782FEF
:102120008827B85F39F0B93FCCF3869577956795E6
:10213000B395D9F73EF490958095709561957F4F52
:102140008F4F9F4F0895E89409C097FB3EF49095F8
:102150008095709561957F4F8F4F9F4F9923A9F080
:10216000F92F96E9BB279395F6958795779567950F
:10217000B795F111F8CFFAF4BB0F11F460FF1BC053
:102180006F5F7F4F8F4F9F4F16C0882311F096E9E6
:1021900011C0772321F09EE8872F762F05C0662394
:1021A00071F096E8862F70E060E02AF09A95660F4D
:1021B000771F881FDAF7880F9695879597F9089506
:1021C000990F0008550FAA0BE0E8FEEF1616170648
:1021D000E807F907C0F012161306E407F50798F0B0
:1021E000621B730B840B950B39F40A2661F0232BC9
:1021F000242B252B21F408950A2609F4A140A69545
:102200008FEF811D811D089597F99F6780E870E029
:1022100060E008959FEF80EC089500240A9416165C
:10222000170618060906089500240A9412161306C4
:10223000140605060895092E0394000C11F4882352
:1022400052F0BB0F40F4BF2B11F460FF04C06F5F6E
:102250007F4F8F4F9F4F089557FD9058440F551F44
:1022600059F05F3F71F04795880F97FB991F61F018
:102270009F3F79F087950895121613061406551F8F
:10228000F2CF4695F1DF08C0161617061806991FFB
:10229000F1CF86957105610508940895E894BB27F0
:1022A00066277727CB0197F908958ADF08F48FEF27
:1022B00008950BD0C0CFB1DF28F0B6DF18F095231A
:1022C00009F0A2CFA7CF1124EACFC6DFA0F3959FD4
:1022D000D1F3950F50E0551F629FF001729FBB270D
:1022E000F00DB11D639FAA27F00DB11DAA1F649FB9
:1022F0006627B00DA11D661F829F2227B00DA11D6C
:10230000621F739FB00DA11D621F839FA00D611DF1
:10231000221F749F3327A00D611D231F849F600D12
:10232000211D822F762F6A2F11249F5750408AF04B
:10233000E1F088234AF0EE0FFF1FBB1F661F771FD7
:10234000881F91505040A9F79E3F510570F05CCF17
:10235000A6CF5F3FECF3983EDCF3869577956795C3
:10236000B795F795E7959F5FC1F7FE2B880F911DF5
:102370009695879597F9089523DF880B990B089513
:1023800097FB072E16F4009407D077FD09D00E9422
:10239000151207FC05D03EF4909581959F4F089546
:1023A000709561957F4F0895A1E21A2EAA1BBB1B61
:1023B000FD010DC0AA1FBB1FEE1FFF1FA217B30711
:1023C000E407F50720F0A21BB30BE40BF50B661F27
:1023D000771F881F991F1A9469F7609570958095EB
:1023E00090959B01AC01BD01CF010895052E97FB8F
:1023F0001EF400940E940D1257FD07D00E94D411C4
:1024000007FC03D04EF40C940D1250954095309576
:1024100021953F4F4F4F5F4F089590958095709550
:1024200061957F4F8F4F9F4F0895AA1BBB1B51E1B2
:1024300007C0AA1FBB1FA617B70710F0A61BB70B34
:10244000881F991F5A95A9F780959095BC01CD01D9
:102450000895EE0FFF1F0590F491E02D0994EF927F
:102460000F931F93CF93DF93E80147FF02C034E13E
:1024700001C034E0E42FFF27E7FDF095F7FF03C02C
:10248000F195E195F109E32E022F2E2FAE010E9466
:102490009014CE01DF91CF911F910F91EF9008958D
:1024A000CF93DF938230910510F482E090E0E091C9
:1024B0008F04F091900420E030E0A0E0B0E030978D
:1024C00039F14081518148175907B8F04817590729
:1024D00071F482819381109729F013969C938E93C7
:1024E00012972CC09093900480938F0427C02115DD
:1024F000310531F04217530718F0A901DB0101C083
:10250000EF019A01BD01DF010280F381E02DD7CFF9
:1025100021153105F9F0281B390B2430310580F4E1
:102520008A819B816115710521F0FB019383828370
:1025300004C09093900480938F04FE01329644C0AF
:10254000FE01E20FF31F81939193225031093983E9
:1025500028833AC020918D0430918E04232B41F4BE
:10256000209102013091030130938E0420938D0459
:1025700020910001309101012115310541F42DB761
:102580003EB74091040150910501241B350BE091A9
:102590008D04F0918E04E217F307A0F42E1B3F0B7D
:1025A0002817390778F0AC014E5F5F4F24173507C5
:1025B00048F04E0F5F1F50938E0440938D0481931B
:1025C000919302C0E0E0F0E0CF01DF91CF91089558
:1025D000CF93DF93009709F487C0FC0132971382F1
:1025E0001282C0918F04D0919004209781F42081B1
:1025F0003181280F391F80918D0490918E048217AC
:10260000930779F5F0938E04E0938D046DC0DE019D
:1026100020E030E0AE17BF0750F412964D915C9168
:1026200013979D014115510509F1DA01F3CFB383E9
:10263000A28340815181840F951F8A179B0771F4F3
:102640008D919C911197840F951F029691838083A1
:1026500012968D919C911397938382832115310556
:1026600029F4F0939004E0938F043EC0D9011396AF
:10267000FC93EE9312974D915D91A40FB51FEA174D
:10268000FB0779F480819181840F951F0296D9010F
:1026900011969C938E938281938113969C938E9333
:1026A0001297E0E0F0E08A819B81009719F0FE012B
:1026B000EC01F9CFCE01029628813981820F931F58
:1026C00020918D0430918E042817390769F43097D2
:1026D00029F41092900410928F0402C01382128287
:1026E000D0938E04C0938D04DF91CF910895A0E024
:1026F000B0E0EDE7F3E10C94FA16EC01CB01209782
:1027000019F40E945012B8C0FE01E60FF71F9E0197
:1027100022503109E217F30708F4ACC0D9010D913A
:102720001C91119706171707B8F00530110508F42A
:102730009FC0A801445051094617570708F498C094
:1027400002501109061B170B019311936D937C9393
:10275000CF010E94E8128CC05B01A01AB10A4E01A1
:10276000800E911EA0918F04B0919004612C712C69
:1027700060E070E0109709F449C0A815B905C9F5E3
:10278000ED90FC901197670142E0C40ED11CCA1471
:10279000DB0478F147018A189B08640142E0C40E0B
:1027A000D11C1296BC9012971396AC91B5E0CB1643
:1027B000D10440F0B282A38391828082D9018D93AB
:1027C0009C9309C00E5F1F4F0E0D1F1DF901118351
:1027D0000083EB2DFA2F6115710531F0DB011396A3
:1027E000FC93EE93129744C0F0939004E0938F040F
:1027F0003FC06D917C9111976616770608F43B01F6
:10280000BD0112960D90BC91A02DB4CF60918D04A6
:1028100070918E0468157905E9F468167906D0F48C
:1028200040910001509101014115510541F44DB70E
:102830005EB76091040170910501461B570BE417C8
:10284000F507C0F4F0938E04E0938D04F9019183B1
:1028500080830EC00E9450127C01009759F0A8019D
:10286000BE010E944114CE010E94E812C70104C0BB
:10287000CE0102C080E090E0CDB7DEB7EEE00C9470
:102880001617FB01DC0102C001900D92415050402F
:10289000D8F70895FB01DC0101900D920020E1F7CB
:1028A0000895FB0151915523A9F0BF01DC014D9121
:1028B00045174111E1F759F4CD010190002049F08D
:1028C0004D9140154111C9F3FB014111EFCF81E05A
:1028D00090E0019708954532510520F4423010F000
:1028E0000C947614FB011082CB010895BB27FB01E9
:1028F0005527AA27880F991FAA1FA41710F0A41BF9
:1029000083955051B9F7A05DAA3308F0A95DA19352
:10291000009779F7B111B1931192CB010C94E6169F
:102920006F927F929F92AF92BF92CF92DF92EF927F
:10293000FF920F931F93CF93DF93CDB7DEB7299705
:102940000FB6F894DEBF0FBECDBF6A01B22E102FB6
:102950000C3320F4FF24F394F00E02C04CE3F42E69
:102960000F2D27E0AE014F5F5F4F0E940E16798159
:10297000272F2970213031F0E1FC06C0E0FC06C0B1
:1029800060E005C06DE203C06BE201C060E2AE2D05
:10299000A07173FF36C0662311F084E001C083E0AC
:1029A0008B1510F4B81A01C0B12CA1110BC0F6019F
:1029B0008B2D90E2882319F091938150FBCFCB0CA3
:1029C000D11CB12C662331F0F601608396012F5F94
:1029D0003F4F6901C6010396E2FE05C02EE4F601F1
:1029E000208331E404C02EE6F601208331E63183F2
:1029F0002283FC012B2D30E22223F1F1319321506F
:102A0000FBCF72FF40C0662311F084E001C083E079
:102A10008B1510F4B81A01C0B12CA1110BC0F6012E
:102A20008B2D90E2882319F091938150FBCFCB0C32
:102A3000D11CB12C662331F0F601608396012F5F23
:102A40003F4F6901C6010396E2FE07C029E4F60183
:102A500020832EE4218326E406C029E6F6012083A4
:102A60002EE6218326E62283FC012B2D30E2222351
:102A700019F031932150FBCFFC01EB0DF11D1082B9
:102A80008EEF9FEFB7C0B1E0611101C0B0E04B2FF6
:102A900050E01816190624F49C012F5F3F4F02C026
:102AA00021E030E0240F351F112329F0412F50E0A1
:102AB0004F5F5F4F02C040E050E0420F531F2B2D8D
:102AC00030E04217530714F4B41A01C0B12C2E2D74
:102AD000287159F4F6012B2D30E2222319F031939D
:102AE0002150FBCFCB0CD11CB12CBB2331F0F60114
:102AF000608396012F5F3F4F6901A1110BC0F60162
:102B00002B2D30E3222319F031932150FBCFCB0C36
:102B1000D11CB12CF80E0A81372F3071A32E74FF0F
:102B200003C0013309F4FA941F142CF42F2D29301B
:102B300018F028E001C021E0682F392F97FF02C06C
:102B400060E030E0462F532F612C712C3EE2932E33
:102B5000BC01621B71099B01DC01A41BB50BE1E008
:102B6000F0E0EC0FFD1FAE0FBF1FE12EF12CF19432
:102B7000E194F1084F3FFFEF5F0731F4F6019082D7
:102B8000B6016F5F7F4F6B01841795074CF02417D8
:102B9000350734F4BD01660D771DFB01118101C0BD
:102BA00010E341505109FFEF6F1A7F0AB6016F5FC2
:102BB0007F4F4E155F0524F0F60110836B01DACFCD
:102BC0004817590739F4063320F4053319F4A110D6
:102BD00001C011E3F6011083FB018B2D90E28823E5
:102BE00019F091938150FBCFFB01EB0DF11D108289
:102BF00080E090E029960FB6F894DEBF0FBECDBFFF
:102C0000DF91CF911F910F91FF90EF90DF90CF90C8
:102C1000BF90AF909F907F906F900895283008F0FC
:102C200027E03327DA01990F311D87FD9160009667
:102C30006105710539F432602E5F3D9330E32A95CA
:102C4000E1F708959F3F30F080387105610509F084
:102C50003C5F3C5F3D93913008F08068911DDF93AD
:102C6000CF931F930F93FF92EF92192F987F969512
:102C7000E92F96959695E90FFF27E45EFE4F992779
:102C80003327EE24FF24A701E70105900894079459
:102C900028F4360FE71EF81E491F511D660F771FD7
:102CA000881F991F0694A1F70590079428F4E70E52
:102CB000F81E491F561FC11D770F881F991F661FD9
:102CC0000694A1F70590079428F4F80E491F561FA3
:102CD000C71FD11D880F991F661F771F0694A1F784
:102CE0000590079420F4490F561FC71FD81F990F4E
:102CF000661F771F881F0694A9F784911095177097
:102D000041F0D695C79557954795F794E7941A954E
:102D1000C1F7E2ECF0E0689415901591359165915A
:102D2000959105907FE27395E118F10A430B560BDC
:102D3000C90BD009C0F7E10CF11E431F561FC91F74
:102D4000D01D7EF4703311F48A95E6CFE8940150DB
:102D500030F0080F0AF40027021708F4202F2395FB
:102D6000022F7A3328F079E37D932A95E9F710C092
:102D70007D932A9589F606949795679537951795CB
:102D80001794E118F10A430B560BC90BD00998F0C0
:102D900023957E9173957A3308F070E37C9320132A
:102DA000B8F77E9170617D9330F0839571E37D93E8
:102DB00070E32A95E1F71124EF90FF900F911F9196
:102DC000CF91DF91992787FD90950895DC01FC0153
:102DD000672F71917723E1F7329704C07C916D934F
:102DE00070836291AE17BF07C8F308952F923F9288
:102DF0004F925F926F927F928F929F92AF92BF920B
:102E0000CF92DF92EF92FF920F931F93CF93DF93B6
:102E1000CDB7DEB7CA1BDB0B0FB6F894DEBF0FBE13
:102E2000CDBF09942A88398848885F846E847D8460
:102E30008C849B84AA84B984C884DF80EE80FD8062
:102E40000C811B81AA81B981CE0FD11D0FB6F894D8
:102E5000DEBF0FBECDBFED01089511E0C0ECD1E0A3
:102E600004C0FE010E942B122296C23CD107C9F772
:042E7000F894FFCF04
:102E74000000910480000167623241364659252AD8
:102E8400797123352A5E00686F6D654D72656A61DC
:102E94003639006669656C64313D00266669656C87
:102EA40064323D00504F5354202F75706461746533
:102EB40020485454502F312E300D0A436F6E6E65E6
:102EC4006374696F6E3A20636C6F73650D0A486FA3
:102ED40073743A206170692E7468696E67737065E3
:102EE400616B2E636F6D0D0A582D5448494E47533C
:102EF4005045414B4150494B45593A204C455A485D
:102F04005949503139483551363331570D0A436FD9
:102F14006E74656E742D547970653A206170706CAE
:102F240069636174696F6E2F782D7777772D666F7B
:102F3400726D2D75726C656E636F6465640D0A4302
:102F44006F6E74656E742D4C656E6774683A2000FC
:102F54000D0A0D0A0041542B434950535441525415
:102F64003D22544350222C226170692E7468696E8C
:102F740067737065616B2E636F6D222C38300D0A98
:102F84000073656E742061205769466920636F6E13
:102F94006E656374696F6E20726571756573740014
:102FA40041542B43495053454E443D003E00485440
:102FB40054502073656E7420612072657175657359
:102FC400740053454E44204F4B00436F6E6E65634F
:102FD40074696F6E20776173204F4B00496E636F85
:102FE4006D696E6720646174613A00434C4F5345C8
:102FF40044004176617261676520526F7720646195
:1030040074612066726F6D2073656E736F722069D0
:10301400733A200074656D70657261747572652011
:10302400696E2074686520726F6F6D2069733A2031
:103034000041542B43574D4F44453D310D0A004147
:10304400542B43574A41503D2200222C2200220D8A
:103054000A0041542B43494653520D0A0046414944
:103064004C00556E61626C6520746F20636F6E6EE8
:1030740065637420746F2074686520496E7465728A
:103084006E657400546865204553503832363620D6
:1030940077617320636F6E6E656374656420746F0B
:1030A4002074686520496E7465726E657400000052
:1030B4000000A7048A0A14058604FA04F90400002F
:1030C40000000E098A0A9008A9089B08EC086E61A2
:0C30D4006E00696E66006F7666002E00CC
:00000001FF
