:100000000C94E1000C9409010C9409010C949607DE
:100010000C9496070C9496070C9409010C94090112
:100020000C9409010C9409010C9409010C94090128
:100030000C9409010C9409010C9409010C94090118
:100040000C9427090C9409010C94EB0B0C941D0CD7
:100050000C9409010C9409010C9409010C940901F8
:100060000C9409010C940901000000080002010031
:100070000003040700000000000000000102040863
:100080001020408001020408102001020408102002
:10009000040404040404040402020202020203032E
:1000A00003030303000000002300260029000000D2
:1000B0000000250028002B0000000000240027007D
:1000C0002A0000407A10F35A00A0724E180900105E
:1000D000A5D4E80000E87648170000E40B540200BD
:1000E00000CA9A3B000000E1F505000080969800E8
:1000F000000040420F000000A08601000000102711
:1001000000000000E80300000000640000000000A0
:100110000A00000000000100000000002C76D888D2
:10012000DC674F0823DFC1DFAE59E1B1B796E5E3E5
:10013000E453C63AE651997696E8E6C28426EB89FE
:100140008C9B62ED407C6FFCEFBC9C9F40F2BAA59B
:100150006FA5F490055A2AF75C936B6CF9676DC133
:100160001BFCE0E40D47FEF520E6B500D0ED902E37
:100170000300943577050080841E080000204E0A95
:10018000000000C80C333333330F986E12831141D3
:10019000EF8D2114893BE65516CFFEE6DB18D1849E
:1001A0004B381BF77C1D901DA4BBE42420328472C5
:1001B0005E228100C9F124ECA1E53D2717014D0C19
:1001C000310111241FBECFEFD8E0DEBFCDBF13E059
:1001D000A0E0B1E0E4E7F2E302C005900D92A23A9C
:1001E000B107D9F724E0A2EAB3E001C01D92A73D10
:1001F000B207E1F711E0C0ECD1E004C02297FE01A4
:100200000E941514CC3BD107C9F70E94910C0C94A5
:100210002D190C9400008CEA93E00E94A80F82EB49
:1002200093E00E94A80F88EB93E00C94100826E05E
:1002300046E16AE087ED93E00E94980420E043E005
:1002400062E088EB93E00E94690866E071E082EB6F
:1002500093E00E94161062E171E08CEA93E00C9446
:1002600016100C940B01AF92BF92CF92DF92EF92D7
:10027000FF920F931F93CF93DF93CDB7DEB7EA972B
:100280000FB6F894DEBF0FBECDBF6B017C015A01E3
:1002900065E172E0CE01C5960E9416108091A2031E
:1002A0009091A30301969093A3038093A2038E01E0
:1002B0000F5F1F4F21E044E0C701B6010E941914EF
:1002C000BC01CE018F960E9416104AE0B501CE0106
:1002D00089960E94A6106091A2037091A3034AE040
:1002E000CE0183960E94A6106091A2037091A30391
:1002F000635E7E4F86E394E00E940B0DB501645D62
:100300007E4F86E394E00E940B0DBE01615D7F4F3E
:10031000CE0141960E94791067E371E0CE014196CB
:100320000E945011BC0186E394E00E94F90CCE01BA
:1003300041960E94A80FBE01675D7F4FCE01419696
:100340000E94791061E471E0CE0141960E94501143
:10035000BC0186E394E00E94F90CCE0141960E9414
:10036000A80F6BE471E0CE0141960E941610BE0109
:10037000615D7F4FCE0141960E943D1163E571E0C2
:100380000E945011BE01675D7F4F0E943D116CE5D8
:1003900071E00E945011BE016D5D7F4F0E943D11C2
:1003A000BC01CE014D960E947910CE0141960E946B
:1003B000A80F69A17AA14AE0CE0147960E94D21007
:1003C00065E671E0CE0141960E941610BE01695E9D
:1003D0007F4FCE0141960E943D1161E172E00E9483
:1003E0005011BC01CE01C5960E946210CE0141960B
:1003F0000E94A80FCE0147960E94A80F66E172E006
:1004000088EB93E00E94EC0C68E872E088EB93E0E4
:100410000E949D0F62E472E086E394E00E940B0D5F
:1004200068EE73E080E090E00E94A00961E672E06F
:1004300088EB93E00E94EC0C6DE672E088EB93E0B1
:100440000E949D0F69A17AA189AD9AAD680F791FAD
:100450004AE0CE0141960E94D210BE016F5E7F4FEE
:1004600088EB93E00E94F90CCE0141960E94A80F00
:100470006FE672E086E394E00E940B0D68EE73E095
:1004800080E090E00E94A009BE016B5C7F4F88EB8A
:1004900093E00E94DE0CBE01635E7F4F88EB93E029
:1004A0000E94DE0C63E872E088EB93E00E949D0FEF
:1004B0006BE872E086E394E00E940B0D65E172E068
:1004C000CE0147960E9416100E9471096B017C01B3
:1004D0006CEA72E0CE0141960E941610BE016F5E7A
:1004E0007F4FCE0147960E9486115C01CE01419656
:1004F0000E94A80FAB20A09459F40E9471096C19B6
:100500007D098E099F09693B7B4081059105B0F10A
:100510006DE972E086E394E00E940B0DBE01695E16
:100520007F4F86E394E00E94F90CCE0147960E942B
:10053000A80FCE014D960E94A80FCE0183960E946F
:10054000A80FCE0189960E94A80FCE018F960E9417
:10055000A80FCE01C5960E94A80FEA960FB6F89490
:10056000DEBF0FBECDBFDF91CF911F910F91FF90E6
:10057000EF90DF90CF90BF90AF90089588EB93E01D
:100580000E943F07892B09F4A3CF88EB93E00E94D8
:10059000B106682FCE0147960E942A11EFCF0F9324
:1005A0001F9363EB72E086E394E00E940B0D60E022
:1005B00087ED93E00E946B066093A8037093A903F4
:1005C0008093AA039093AB0340E060E087ED93E053
:1005D0000E940B066093A4037093A5038093A60367
:1005E0009093A70365EC72E086E394E00E94EC0C24
:1005F0004091A8035091A9036091AA037091AB03A5
:1006000021E030E086E394E00E94AB0E60ED72E002
:1006100086E394E00E94EC0C4091A4035091A50362
:100620006091A6037091A70321E030E086E394E097
:100630000E94AB0E62EE72E086E394E00E940B0D26
:1006400060ED77E080E090E00E94A0096091A8034F
:100650007091A9038091AA039091AB030E945C1250
:100660008B019C016091A4037091A5038091A60366
:100670009091A703A8010E94330160E375E780E031
:1006800090E01F910F910C94A0098F929F92BF92BE
:10069000CF92DF92EF92FF920F931F93CF93DF934E
:1006A00000D000D000D0CDB7DEB78C017B014A016D
:1006B000B22E88EB93E00E94DE0CB70186E394E053
:1006C0000E94F90C0E9471096B017C0165E172E0E6
:1006D000C8010E941610A401662757FD6095762F69
:1006E000C40ED51EE61EF71E0E9471096C157D050D
:1006F0008E059F0518F588EB93E00E943F07892B34
:1007000049F088EB93E00E94B106682FC8010E946F
:100710002A11F1CF68E872E0CE0101960E9416100E
:10072000BE016F5F7F4FC8010E9486114C01CE0150
:1007300001960E94A80F89208094B1F2BB2029F075
:10074000B80186E394E00E94DE0CC80126960FB63D
:10075000F894DEBF0FBECDBFDF91CF911F910F91F7
:10076000FF90EF90DF90CF90BF909F908F90089573
:100770000F931F93CF93DF93CDB7DEB762970FB67A
:10078000F894DEBF0FBECDBF6BEE72E0CE010796D0
:100790000E94161021E048EE53E0BE01695F7F4FD2
:1007A000CE0101960E944503CE0101960E94A80F3A
:1007B000CE0107960E94A80F69EF72E0CE010D9658
:1007C0000E94161062EB73E0CE010D960E943D115F
:1007D00064E073E00E9450116CEA73E00E943D11E6
:1007E00068E073E00E945011BC01CE0107960E94A0
:1007F000791021E040E157E2BE01695F7F4FCE01F1
:1008000001960E944503CE0101960E94A80FCE01D9
:1008100007960E94A80FCE010D960E94A80F65E1D1
:1008200072E0CE010D960E9416106CE073E0CE01CE
:1008300007960E94161021E040E45FE1BE01695F67
:100840007F4FCE0101960E944503BE016F5F7F4F2F
:10085000CE010D960E948210CE0101960E94A80F33
:10086000CE0107960E94A80F67E173E0CE010196C2
:100870000E941610BE01635F7F4FCE0101960E9459
:100880003D11BC0186E394E00E94F90CCE01019673
:100890000E94A80F63E273E0CE0101960E94161039
:1008A000BE016F5F7F4FCE010D960E9486118C01B5
:1008B000CE0101960E94A80FCE010D960E94A80FAE
:1008C00081E00F3F1F4F09F080E062960FB6F89469
:1008D000DEBF0FBECDBFDF91CF911F910F91089565
:1008E00026E040E052EC61E070E086E394E00E9494
:1008F000890B40E052EC61E070E088EB93E00E94ED
:10090000990868EE73E080E090E00E94A00987ED0E
:1009100093E00E94B9040E94B803811103C068E209
:1009200073E002C06AE473E086E394E00C940B0D7C
:10093000DC0115966C93159716964C93169770E0FC
:10094000FB01E458FF4FE4911796EC931797FB01D6
:10095000E057FF4F649118966C93189740E85EE358
:1009600060E070E01D964D935D936D937C9350977E
:100970000895CF93DF93EC0162E08D810E94370AE6
:1009800040E358EF6FEF7FEF49875A876B877C878B
:10099000DF91CF910895AF92BF92CF92DF92EF9205
:1009A000FF920F931F93CF93DF93EC01AF806623E9
:1009B00011F0BA2C01C0B12CA885B0E0AA0FBB1F62
:1009C000AC55BF4F40E050E0BA01FD0185919491D4
:1009D000FC0180818A218B1112C08A019B010F5F6B
:1009E0001F4F2F4F3F4FCD84DE84EF84F8884C1586
:1009F0005D056E057F0538F4B901A801E6CF342FF7
:100A0000252FCB0104C030E020E080E090E0632F90
:100A1000722FDF91CF911F910F91FF90EF90DF9098
:100A2000CF90BF90AF900895CF92DF92EF92FF9258
:100A30000F931F93CF93DF93CDB7DEB7C054D14050
:100A40000FB6F894DEBF0FBECDBF8C01F62E0E940C
:100A50007109F11016C0F801C184D284E384F484D2
:100A60009B01AC012C193D094E095F0969017A010E
:100A700030EDC31637E0D306E104F10410F48189A8
:100A8000BAC0F801618772878387948714821382C2
:100A900012821182108261E085810E94700A6AEFE1
:100AA00070E080E090E00E94A00961E0F80185819B
:100AB0000E94370A60E0F80185810E94700A64E1B3
:100AC00070E080E090E00E94A009F89461E0F801F5
:100AD00085810E94700A88E290E00E94C80962E065
:100AE000F80185810E94370A8AE090E00E94C809D7
:100AF00060E0C8010E94CB04672B682B692B41F092
:100B000061E0C8010E94CB04672B682B692B21F49C
:100B1000F801118A78946EC06E01FFEBCF1AFEEFD8
:100B2000DF0A9E012F5F3F4F790160E0C8010E94FC
:100B3000CB04F701608371838283938361E0C801F2
:100B40000E94CB04F7016483758386839783F8E062
:100B5000EF0EF11CEC14FD0441F778949E012F5F19
:100B60003F4F790120E030E0F701408151816281FF
:100B7000738184819581A681B781411551056105F5
:100B80007105B1F10097A105B10591F1F901F59554
:100B9000E795F595E795F595E795E00FF11FD0807E
:100BA000DD0C481759076A077B0710F0D08203C095
:100BB0008D2D816080832F5F3F4FF8E0EF0EF11C99
:100BC0002832310589F6F801248130E040818181A5
:100BD00090E0840F911D4281840F911D4381840F09
:100BE000911D99272817390719F481E0818B03C0DB
:100BF000F801118A80E0C05CDE4F0FB6F894DEBFCA
:100C00000FBECDBFDF91CF911F910F91FF90EF905D
:100C1000DF90CF900895CF92DF92EF92FF920F93E3
:100C20001F93CF93DF93EC01162F642F0E941405BE
:100C3000882309F443C08E818B3031F008F43EC024
:100C40008551823040F03AC06A8170E080E090E0E7
:100C50000E948D1224C00A81602F6F7770E080E0BF
:100C600090E00E948F1220E030E040E853E40E94C0
:100C700043136B017C016B8170E080E090E00E9487
:100C80008F129B01AC01C701B6010E948C112DECA3
:100C90003CEC4CEC5DE30E94431307FD905811239C
:100CA00089F026E636E646EE5FE30E94431320E035
:100CB00030E040E052E40E948C1104C060E070E03B
:100CC00080EC9FE7DF91CF911F910F91FF90EF9004
:100CD000DF90CF900895CF92DF92EF92FF92CF9363
:100CE000DF93EC0160E00E941405882379F18E8186
:100CF0008B3029F158F18551823040F5688170E0E0
:100D000080E090E00E948D1220E030E040E853E463
:100D10000E9443136B017C01698170E080E090E0E8
:100D20000E948F129B01AC01C701B6010E948C1179
:100D30002DEC3CEC4CEC5DE30E9443130BC068814E
:100D400070E080E090E00E948D1204C060E070E0EE
:100D500080EC9FE7DF91CF91FF90EF90DF90CF90F5
:100D6000089520912B0430912C0428173907B9F4E9
:100D70009091E9038091EA03981789F0E091E903E3
:100D8000F0E0E551FC4F80812091E90330E02F5FD6
:100D90003F4F2F7333272093E90390E008958FEF9F
:100DA0009FEF08951F93CF93DF93DC015C968D91A5
:100DB0009C915D97009749F481E090E013969C9395
:100DC0008E93129780E090E03BC05196ED91FC919C
:100DD000529750962C915097322F30951FB75E96B0
:100DE0004C915E9741FB772770F941FD6095F8942F
:100DF0004081772311F0422B01C043234083EC0153
:100E00002197F1F748E0508160FF02C0522B01C0EA
:100E100053235083EC012197F1F76695415099F7E0
:100E20008081772311F0832301C0822B80831FBF31
:100E30005C968D919C915D970197F1F781E090E030
:100E4000DF91CF911F910895089520912B04309147
:100E50002C042817390781F49091E9038091EA0363
:100E6000981751F0E091E903F0E0E551FC4F8081E3
:100E7000992787FD909508958FEF9FEF0895209112
:100E80002B0430912C042817390771F48091EA0360
:100E90002091E90390E0805C9F4F821B910960E400
:100EA00070E00E94AA13089580E090E00895E09118
:100EB0002B04F0912C04E817F90769F4A389B4898D
:100EC0009C918589809589238C9310922C04109293
:100ED0002B0481E0089580E00895CF93DF93EC0127
:100EE0008A8D9B8D892BF1F080912B0490912C049D
:100EF0008C179D07B9F0009711F00E9457078E8D4F
:100F00008E7F8E8F1092EA031092E903D0932C0407
:100F1000C0932B04EB89FC8980819D89892B808378
:100F200081E001C080E0DF91CF9108951F920F9280
:100F30000FB60F9211242F933F934F935F936F93AC
:100F40007F938F939F93AF93BF93EF93FF93E09122
:100F50002B04F0912C04309709F451C0868DA6859E
:100F6000B785958581FF04C08C91892329F447C0FA
:100F70008C91892309F043C0A389B4899C91858908
:100F8000809589238C93868997890197F1F7208D25
:100F9000318DA685B785758558E040E0C901019778
:100FA000F1F7842F90E095958795482F6C916723F2
:100FB00009F04068515091F7868D81FD40958091F0
:100FC000EA0390E001968F7399272091E90328178F
:100FD00049F0A091EA03B0E0A551BC4F4C93809337
:100FE000EA0303C0868D8160868F828D938D019781
:100FF000F1F7A389B4898C919589892B8C93FF9102
:10100000EF91BF91AF919F918F917F916F915F9180
:101010004F913F912F910F900FBE0F901F901895F9
:1010200028E733E0FC01318320830C9457071F939A
:10103000CF93DF93EC01162F6E8D6695617081E082
:101040006827812F0E94700A61E0812F0E94370A71
:10105000812F90E0FC01E458FF4FE491E88BFC0104
:10106000E057FF4FE491F0E0EE0FFF1FE255FF4F16
:10107000859194919A8B898BDF91CF911F910895DF
:101080001F93CF93DF93EC01162F60E0812F0E9416
:10109000370A8E8D81FD04C061E0812F0E94700AA5
:1010A0001C87812F90E0FC01E458FF4FE491ED870D
:1010B000FC01E057FF4FE491F0E0EE0FFF1FEC550D
:1010C000FF4F859194919F878E87DF91CF911F91DC
:1010D0000895FF920F931F93CF93DF93EC01F62EA9
:1010E000522F1B821A8208EE13E020E030E00C83BE
:1010F0001D832E833F8388E793E0998388831F8A2B
:101100001E8A198E188E1B8E1A8E1D8E1C8E8E8D29
:101110008E7F50FB81F98E8F642FCE010E941708BD
:101120006F2DCE01DF91CF911F910F91FF900C9405
:101130004008CF93DF93EC019A01AB011B8E1A8E0E
:10114000198E188E1F8A1E8A60E079E08DE390E088
:101150000E94E013C9012430310520F0B901635029
:10116000710902C061E070E07D8F6C8FEC85E63123
:1011700008F068C0B901769567956431710518F07B
:101180006351710902C061E070E07F8B6E8B06973E
:1011900018F0C901059702C081E090E0998F888F0F
:1011A000C901880F991F820F931F96958795969571
:1011B00087958D30910510F00C9702C081E090E08A
:1011C0009B8F8A8F20916800E83050F091E0EE30DC
:1011D00008F490E081E001C0880F9A95EAF701C019
:1011E00084E0822B809368002C85283038F02E30E4
:1011F00040F0263148F48CE690E008C08DE690E09F
:1012000005C08BE690E002C080E090E09C8B8B8B69
:10121000283030F481E001C0880F2A95EAF70DC02C
:10122000822F90E02E3010F4089701C00E9791E0C5
:1012300001C0990F8A95EAF7892F8D8B8C8D9D8D32
:101240000197F1F7CE01DF91CF910C946D071F92BA
:101250000F920FB60F9211242F933F938F939F936A
:10126000AF93BF9380912E0490912F04A0913004EE
:10127000B091310430912D0423E0230F2D3720F459
:101280000196A11DB11D05C026E8230F0296A11DE0
:10129000B11D20932D0480932E0490932F04A093CE
:1012A0003004B09331048091320490913304A091C2
:1012B0003404B09135040196A11DB11D8093320410
:1012C00090933304A0933404B0933504BF91AF914D
:1012D0009F918F913F912F910F900FBE0F901F9074
:1012E00018952FB7F89460912E0470912F04809177
:1012F0003004909131042FBF08953FB7F894809146
:10130000320490913304A0913404B091350426B591
:10131000A89B05C02F3F19F00196A11DB11D3FBF2D
:101320006627782F892F9A2F620F711D811D911DBD
:1013300042E0660F771F881F991F4A95D1F70895DD
:10134000CF92DF92EF92FF92CF93DF936B017C01FC
:101350000E947D09EB01C114D104E104F10489F07C
:101360000E948A110E947D096C1B7D0B683E7340B0
:1013700090F381E0C81AD108E108F108C851DC4FA8
:10138000EACFDF91CF91FF90EF90DF90CF9008955B
:101390008230910538F0880F991F880F991F0597A3
:1013A0000197F1F70895789484B5826084BD84B57F
:1013B000816084BD85B5826085BD85B5816085BD50
:1013C000EEE6F0E0808181608083E1E8F0E0108269
:1013D000808182608083808181608083E0E8F0E0AA
:1013E000808181608083E1EBF0E080818460808394
:1013F000E0EBF0E0808181608083EAE7F0E08081CB
:10140000846080838081826080838081816080832A
:101410008081806880831092C1000895833081F0BC
:1014200028F4813099F08230A1F008958730A9F036
:101430008830B9F08430D1F4809180008F7D03C072
:10144000809180008F7780938000089584B58F7796
:1014500002C084B58F7D84BD08958091B0008F77E0
:1014600003C08091B0008F7D8093B0000895CF932A
:10147000DF9390E0FC01E458FF4F2491FC01E0571A
:10148000FF4F8491882349F190E0880F991FFC0158
:10149000E854FF4FA591B49182559F4FFC01C5912F
:1014A000D4919FB7611108C0F8948C912095822344
:1014B0008C93888182230AC0623051F4F8948C9115
:1014C000322F309583238C938881822B888304C0AC
:1014D000F8948C91822B8C939FBFDF91CF910895CC
:1014E0000F931F93CF93DF931F92CDB7DEB7282FB3
:1014F00030E0F901E859FF4F8491F901E458FF4FBA
:101500001491F901E057FF4F04910023C9F088239B
:1015100021F069830E940E0A6981E02FF0E0EE0F4E
:10152000FF1FE255FF4FA591B4919FB7F8948C919E
:10153000611103C01095812301C0812B8C939FBF43
:101540000F90DF91CF911F910F910895FC01818D34
:10155000228D90E0805C9F4F821B91098F739927A9
:101560000895FC01918D828D981731F0828DE80FDE
:10157000F11D858D90E008958FEF9FEF0895FC0198
:10158000918D828D981761F0828DDF01A80FB11DBA
:101590005D968C91928D9F5F9F73928F90E00895DE
:1015A0008FEF9FEF089583E49CE0892B49F080E062
:1015B00090E0892B29F00E94430C81110C940000CB
:1015C0000895FC01848DDF01A80FB11DA35ABF4F00
:1015D0002C91848D90E001968F739927848FA68932
:1015E000B7892C93A089B1898C9180648C93938D59
:1015F000848D981306C00288F389E02D80818F7D49
:1016000080830895CF93DF93EC01888D8823C9F000
:10161000EA89FB89808185FD05C0A889B9898C91FB
:1016200086FD0FC00FB607FCF5CF808185FFF2CF96
:10163000A889B9898C9185FFEDCFCE010E94E10A7E
:10164000E7CFDF91CF910895CF92DF92FF920F9372
:101650001F93CF93DF931F92CDB7DEB76C0181E06C
:10166000D60158968C9358975B969C915B975C96A5
:101670008C915C97981307C05096ED91FC9151970F
:10168000808185FD2EC0F601038D10E00F5F1F4F96
:101690000F731127F02EF601848DF81211C00FB6CA
:1016A00007FCF9CFD6015096ED91FC9151978081BE
:1016B00085FFF1CFC60169830E94E10A6981EBCF02
:1016C000838DE80FF11DE35AFF4F6083D6015B96CF
:1016D0000C935B975296ED91FC91539780818062B9
:1016E0000CC0D6015696ED91FC91579760835096A9
:1016F000ED91FC91519780818064808381E090E03E
:101700000F90DF91CF911F910F91FF90DF90CF90BD
:101710000895BF92CF92DF92EF92FF92CF93DF9323
:10172000EC016A017B01B22EE889F98982E08083AD
:10173000411581EE580761057105A1F060E079E07F
:101740008DE390E0A70196010E94BE13215031095C
:10175000410951095695479537952795211580E1FF
:10176000380798F0E889F989108260E874E88EE11A
:1017700090E0A70196010E94BE1321503109410952
:1017800051095695479537952795EC85FD8530830A
:10179000EE85FF852083188EEC89FD89B082EA8969
:1017A000FB89808180618083EA89FB8980818860F0
:1017B0008083EA89FB89808180688083EA89FB894C
:1017C00080818F7D8083DF91CF91FF90EF90DF90BC
:1017D000CF90BF9008951F920F920FB60F921124D1
:1017E0002F938F939F93EF93FF93E0914604F09193
:1017F00047048081E0914C04F0914D0482FD12C0B9
:10180000908180914F048F5F8F73209150048217D5
:1018100051F0E0914F04F0E0EA5CFB4F958F80932C
:101820004F0401C08081FF91EF919F918F912F9183
:101830000F900FBE0F901F9018951F920F920FB62A
:101840000F9211242F933F934F935F936F937F9346
:101850008F939F93AF93BF93EF93FF9386E394E0AF
:101860000E94E10AFF91EF91BF91AF919F918F91FB
:101870007F916F915F914F913F912F910F900FBE8C
:101880000F901F90189586E394E00E94A60A21E02D
:10189000892B09F420E0822F0895109239041092C8
:1018A000380488EE93E0A0E0B0E080933A0490938F
:1018B0003B04A0933C04B0933D0488E893E09093EC
:1018C00037048093360485EC90E090934304809332
:1018D000420484EC90E0909345048093440480ECAF
:1018E00090E0909347048093460481EC90E09093BD
:1018F00049048093480482EC90E090934B048093D9
:101900004A0486EC90E090934D0480934C0410922E
:101910004F041092500410925104109252040895F2
:1019200008950E94D3090E94900C0E947004C3ED98
:10193000DAE00E94CF022097E1F30E94D30AF9CFA8
:10194000CF92DF92EF92FF920F931F93CF93DF938B
:101950007C016A01EB0100E010E00C151D0571F03F
:101960006991D701ED91FC910190F081E02DC701C3
:101970000995892B19F00F5F1F4FEFCFC801DF9139
:10198000CF911F910F91FF90EF90DF90CF9008952E
:101990006115710581F0DB010D900020E9F7AD01C3
:1019A00041505109461B570BDC01ED91FC9102801F
:1019B000F381E02D099480E090E00895DC01ED9141
:1019C000FC91DB0114964D915C9115976D917C9182
:1019D0000280F381E02D09940C94C80CDC01ED9198
:1019E000FC910190F081E02D099463E172E00C9488
:1019F000C80C0F931F93CF93DF93EC010E94DE0C72
:101A00008C01CE010E94F50C800F911FDF91CF91C8
:101A10001F910F9108950F931F93CF93DF93EC01C4
:101A20000E94C80C8C01CE010E94F50C800F911F02
:101A3000DF91CF911F910F9108958F929F92AF9256
:101A4000BF92CF92DF92EF92FF920F931F93CF93AB
:101A5000DF93CDB7DEB7A1970FB6F894DEBF0FBE08
:101A6000CDBF7C01C42EE52FCB01D22E19A221E0DF
:101A70002D1510F02AE0D22E8E010F5D1F4F8D2CF8
:101A8000912CA12CB12C6C2D7E2FA50194010E94CC
:101A9000BE138C2DD29E80191124015011098A3059
:101AA00014F4805D01C0895CF80180832115310543
:101AB0004105510521F0C22EE32FCA01E4CFB80140
:101AC000C7010E94C80CA1960FB6F894DEBF0FBEE6
:101AD000CDBFDF91CF911F910F91FF90EF90DF90DD
:101AE000CF90BF90AF909F908F900895CF92DF924C
:101AF000EF92FF920F931F93CF93DF93EC016A0154
:101B00007B012115310579F4E881F9810190F0819B
:101B1000E02D642FDF91CF911F910F91FF90EF90F7
:101B2000DF90CF9009942A303105E9F477FF1AC08D
:101B30006DE20E94EE0C8C0144275527BA014C1926
:101B40005D096E097F092AE0CE010E941D0D800FFC
:101B5000911FDF91CF911F910F91FF90EF90DF9038
:101B6000CF9008952AE0B701A601CE01DF91CF9171
:101B70001F910F91FF90EF90DF90CF900C941D0D6F
:101B80004F925F926F927F928F929F92AF92BF928D
:101B9000CF92DF92EF92FF920F931F93CF93DF9339
:101BA000EC016A017B01B22E9A01AB01C701B601BB
:101BB0000E94A613882319F064E973E027C0260168
:101BC0003701E89477F82FEF3FEF4FE75FE7C30166
:101BD000B2010E94A61381110DC02FEF3FEF4FE716
:101BE0005FE7C301B2010E94F01118161CF468E906
:101BF00073E00CC02FEF3FEF4FE75FE4C701B60182
:101C00000E943F131816ACF46CE973E0CE01DF912B
:101C1000CF911F910F91FF90EF90DF90CF90BF90E9
:101C2000AF909F908F907F906F905F904F900C94AB
:101C3000C80C2FEF3FEF4FE75FECC701B6010E94E2
:101C4000F01187FDE1CF20E030E0A901C701B60126
:101C50000E94F01187FF0AC06DE2CE010E94EE0CD7
:101C60008C01F7FAF094F7F8F09402C000E010E06D
:101C7000A12C60E070E080E09FE3AB1441F020E035
:101C800030E040E251E40E94F411A394F6CF9B01AE
:101C9000AC01C701B6010E948C116B017C010E944E
:101CA00061122B013C010E948D129B01AC01C70106
:101CB000B6010E948B116B017C012AE0B301A201E5
:101CC000CE010E941D0D080F191FBB2039F060EADC
:101CD00073E0CE010E94C80C080F191F7B2C7720DF
:101CE00041F120E030E040E251E4C701B6010E943A
:101CF00043136B017C010E945C124B01AA2497FCE8
:101D0000A094BA2C2AE030E0B501A401CE010E94D3
:101D1000760D080F191FC501B4010E948F129B0197
:101D2000AC01C701B6010E948B116B017C017A9452
:101D3000D6CFC801DF91CF911F910F91FF90EF9007
:101D4000DF90CF90BF90AF909F908F907F906F90DB
:101D50005F904F9008950C94C00D0F931F93CF93F5
:101D6000DF93EC010E947109688779878A879B87D6
:101D7000E881F9810680F781E02DCE01099597FF72
:101D800015C00E947109088519852A853B85601B4D
:101D9000710B820B930B0C811D812E813F8160178B
:101DA00071078207930720F38FEF9FEFDF91CF91A9
:101DB0001F910F9108954F925F926F927F928F9231
:101DC0009F92AF92BF92CF92DF92EF92FF920F93CA
:101DD0001F93CF93DF934C01EB0186E0849F80013A
:101DE000859F100D1124060F171FFB01E017F10747
:101DF00008F582819381892B21F13696F7CF4081B6
:101E0000518164817581DA01A60FB71F2C913327A8
:101E100027FD30958217930711F56F5F7F4F75830C
:101E20006483228133816217730759F03696E01775
:101E3000F10728F3C4010E94AD0E97FD46C0FE01D4
:101E4000F6CFEC1BFD0BF595E7952BEA3AEAE29FFE
:101E5000C001E39F900DF29F900D112438C06115D1
:101E6000710521F3A480B580950121503109358396
:101E70002483DA01A20FB31FAC91BB27A7FDB09555
:101E80008A179B07F9F421153105C9F06A017B0116
:101E9000E21AF30AE40EF51E412C512CD6016D9086
:101EA0006D01D7017D907D01671006C0BFEF4B1A11
:101EB0005B0A4216530690F34216530699F6B58212
:101EC000A482B4CF232B71F6B1CF8FEF9FEFDF91B8
:101ED000CF911F910F91FF90EF90DF90CF90BF9027
:101EE000AF909F908F907F906F905F904F900895EC
:101EF000CF93DF9300D000D000D0CDB7DEB7FE0186
:101F0000319626E0DF011D922A95E9F77A836983ED
:101F10005C834B8341E050E0BF010E94DB0E21E077
:101F2000892B09F020E0822F26960FB6F894DEBFA9
:101F30000FBECDBFDF91CF910895FB01019000202E
:101F4000E9F7AF0141505109461B570B0C94780F2C
:101F5000FC01808191810C94D214CF93DF93EC012A
:101F600088819981009711F00E94D21419821882F9
:101F70001D821C821B821A82DF91CF9108950F93DC
:101F80001F93CF93DF93EC018B016F5F7F4F8881AD
:101F900099810E946115009731F0998388831B8392
:101FA0000A8381E001C080E0DF91CF911F910F9102
:101FB0000895CF93DF93EC0188819981892B29F0D3
:101FC0008A819B818617970760F4CE010E94BF0F1C
:101FD000882341F08C819D81892B19F4E881F98156
:101FE000108281E0DF91CF910895EF92FF920F93DD
:101FF0001F93CF93DF93EC017B018A01BA010E940A
:10200000D90F811104C0CE010E94AD0F07C01D83FE
:102010000C83B701888199810E943416CE01DF912B
:10202000CF911F910F91FF90EF900895FC011182C5
:10203000108213821282158214826115710559F083
:10204000FB0101900020E9F7AF0141505109461B07
:10205000570B0C94F50F08950F931F93CF93DF93B5
:102060008C01EB01FC0180819181009799F0428104
:1020700053812C813D814217530750F0688179814B
:102080000E9434168C819D81F8019583848313C04E
:102090000E94D21488819981F801918380838A817A
:1020A0009B81938382838C819D8195838483198214
:1020B00018821B821A821D821C82DF91CF911F9190
:1020C0000F910895CF93DF93EC01FB0186179707DB
:1020D00061F0608171816115710529F0448155813C
:1020E0000E94F50F02C00E94AD0FCE01DF91CF918B
:1020F0000895FC01118210821382128215821482CB
:102100000C946210CF93DF93EC018617970711F0C0
:102110000E942C10CE01DF91CF910895CF93DF93D1
:10212000EC016115710561F0FB0101900020E9F7F8
:10213000AF0141505109461B570B0E94F50F02C0D9
:102140000E94AD0FCE01DF91CF9108950F931F93A1
:10215000CF93DF93CDB7DEB762970FB6F894DEBFAB
:102160000FBECDBF8C01CB01F8011182108213820A
:1021700012821582148250E0BE016F5F7F4F0E9471
:102180005516BE016F5F7F4FC8010E948E10629688
:102190000FB6F894DEBF0FBECDBFDF91CF911F9178
:1021A0000F9108950F931F93CF93DF93CDB7DEB7B1
:1021B00061970FB6F894DEBF0FBECDBF8C01CB0187
:1021C000F80111821082138212821582148250E06B
:1021D000BE016F5F7F4F0E946B16BE016F5F7F4F26
:1021E000C8010E948E1061960FB6F894DEBF0FBE34
:1021F000CDBFDF91CF911F910F910895EF92FF9284
:102200000F931F93CF93DF93EC017B010C811D8112
:102210006115710511F480E016C04115510591F06A
:10222000040F151FB8010E94D90F8823A1F328813C
:1022300039818C819D81B701820F931F0E943416D2
:102240001D830C8381E0DF91CF911F910F91FF904F
:10225000EF900895CF93DF9300D0CDB7DEB76983B9
:102260001A8241E050E0BE016F5F7F4F0E94FE1076
:102270000F900F90DF91CF910895CF93DF93EC01F2
:10228000FB0144815581608171810E94FE108111A2
:1022900003C0CE010E94AD0FCE01DF91CF91089512
:1022A000CF93DF93EC016115710569F0FB0101909B
:1022B0000020E9F7AF0141505109461B570B0E941E
:1022C000FE10811103C0CE010E94AD0FCE01DF913F
:1022D000CF910895CF93DF93FC01848195814817B6
:1022E000590778F4C081D181FB0160817181CE01F1
:1022F000840F951F0E943B16009719F08C1B9D0BB5
:1023000002C08FEF9FEFDF91CF91089540E050E042
:102310000C946A1108955058BB27AA270ED075C196
:1023200066D130F06BD120F031F49F3F11F41EF4F0
:102330005BC10EF4E095E7FB51C1E92F77D180F343
:10234000BA17620773078407950718F071F49EF5B2
:102350008FC10EF4E0950B2EBA2FA02D0B01B90101
:1023600090010C01CA01A0011124FF27591B99F00B
:10237000593F50F4503E68F11A16F040A22F232F17
:10238000342F4427585FF3CF469537952795A79567
:10239000F0405395C9F77EF41F16BA0B620B730B0E
:1023A000840BBAF09150A1F0FF0FBB1F661F771F7F
:1023B000881FC2F70EC0BA0F621F731F841F48F434
:1023C000879577956795B795F7959E3F08F0B3CFBA
:1023D0009395880F08F09927EE0F979587950895A4
:1023E000D9D008F481E008950CD00FC107D140F096
:1023F000FED030F021F45F3F19F0F0C0511139C127
:10240000F3C014D198F39923C9F35523B1F3951B65
:10241000550BBB27AA2762177307840738F09F5F05
:102420005F4F220F331F441FAA1FA9F333D00E2E74
:102430003AF0E0E830D091505040E695001CCAF7E1
:1024400029D0FE2F27D0660F771F881FBB1F2617A6
:1024500037074807AB07B0E809F0BB0B802DBF0179
:10246000FF2793585F4F2AF09E3F510568F0B6C092
:1024700000C15F3FECF3983EDCF386957795679556
:10248000B795F7959F5FC9F7880F911D969587952A
:1024900097F90895E1E0660F771F881FBB1F621749
:1024A00073078407BA0720F0621B730B840BBA0B07
:1024B000EE1F88F7E095089504D06894B111D9C053
:1024C0000895BCD088F09F5790F0B92F9927B75145
:1024D000A0F0D1F0660F771F881F991F1AF0BA95E8
:1024E000C9F712C0B13081F0C3D0B1E00895C0C0C7
:1024F000672F782F8827B85F39F0B93FCCF38695DE
:1025000077956795B395D9F73EF49095809570953A
:1025100061957F4F8F4F9F4F0895E89409C097FBB7
:102520003EF490958095709561957F4F8F4F9F4FAA
:102530009923A9F0F92F96E9BB279395F6958795EE
:1025400077956795B795F111F8CFFAF4BB0F11F4B1
:1025500060FF1BC06F5F7F4F8F4F9F4F16C0882358
:1025600011F096E911C0772321F09EE8872F762F8E
:1025700005C0662371F096E8862F70E060E02AF0CF
:102580009A95660F771F881FDAF7880F96958795BB
:1025900097F90895990F0008550FAA0BE0E8FEEF90
:1025A00016161706E807F907C0F012161306E40717
:1025B000F50798F0621B730B840B950B39F40A2610
:1025C00061F0232B242B252B21F408950A2609F4EE
:1025D000A140A6958FEF811D811D089597F99F67F2
:1025E00080E870E060E008959FEF80EC089500249B
:1025F0000A941616170618060906089500240A9468
:1026000012161306140605060895092E0394000CED
:1026100011F4882352F0BB0F40F4BF2B11F460FF7C
:1026200004C06F5F7F4F8F4F9F4F089557FD9058A5
:10263000440F551F59F05F3F71F04795880F97FB86
:10264000991F61F09F3F79F0879508951216130640
:102650001406551FF2CF4695F1DF08C0161617066F
:102660001806991FF1CF86957105610508940895A4
:10267000E894BB2766277727CB0197F908958ADF6F
:1026800008F48FEF08950BD0C0CFB1DF28F0B6DF8C
:1026900018F0952309F0A2CFA7CF1124EACFC6DF07
:1026A000A0F3959FD1F3950F50E0551F629FF00165
:1026B000729FBB27F00DB11D639FAA27F00DB11DBE
:1026C000AA1F649F6627B00DA11D661F829F222747
:1026D000B00DA11D621F739FB00DA11D621F839FCE
:1026E000A00D611D221F749F3327A00D611D231FA4
:1026F000849F600D211D822F762F6A2F11249F57F2
:1027000050408AF0E1F088234AF0EE0FFF1FBB1F14
:10271000661F771F881F91505040A9F79E3F5105B3
:1027200070F05CCFA6CF5F3FECF3983EDCF386956C
:1027300077956795B795F795E7959F5FC1F7FE2B5E
:10274000880F911D9695879597F9089523DF880B3B
:10275000990B089597FB072E16F4009407D077FD88
:1027600009D00E94FF1307FC05D03EF49095819597
:102770009F4F0895709561957F4F0895A1E21A2E9D
:10278000AA1BBB1BFD010DC0AA1FBB1FEE1FFF1F15
:10279000A217B307E407F50720F0A21BB30BE40B65
:1027A000F50B661F771F881F991F1A9469F76095AC
:1027B0007095809590959B01AC01BD01CF01089566
:1027C000052E97FB1EF400940E94F71357FD07D0C7
:1027D0000E94BE1307FC03D04EF40C94F7135095DF
:1027E0004095309521953F4F4F4F5F4F08959095FD
:1027F0008095709561957F4F8F4F9F4F0895AA1BCD
:10280000BB1B51E107C0AA1FBB1FA617B70710F0DB
:10281000A61BB70B881F991F5A95A9F7809590950D
:10282000BC01CD010895EE0FFF1F0590F491E02D3E
:102830000994EF920F931F93CF93DF93E80147FF23
:1028400002C034E101C034E0E42FFF27E7FDF0953A
:10285000F7FF03C0F195E195F109E32E022F2E2F2A
:10286000AE010E949016CE01DF91CF911F910F9182
:10287000EF900895CF93DF938230910510F482E0BA
:1028800090E0E091D504F091D60420E030E0A0E0A3
:10289000B0E0309739F14081518148175907B8F0BD
:1028A0004817590771F482819381109729F0139684
:1028B0009C938E9312972CC09093D6048093D5044A
:1028C00027C02115310531F04217530718F0A9012F
:1028D000DB0101C0EF019A01BD01DF010280F3813C
:1028E000E02DD7CF21153105F9F0281B390B243005
:1028F000310580F48A819B816115710521F0FB010E
:102900009383828304C09093D6048093D504FE0100
:10291000329644C0FE01E20FF31F8193919322503F
:102920003109398328833AC02091D3043091D404EB
:10293000232B41F420910201309103013093D40400
:102940002093D3042091000130910101211531051C
:1029500041F42DB73EB74091040150910501241B6D
:10296000350BE091D304F091D404E217F307A0F4FF
:102970002E1B3F0B2817390778F0AC014E5F5F4FD5
:102980002417350748F04E0F5F1F5093D40440932F
:10299000D3048193919302C0E0E0F0E0CF01DF9196
:1029A000CF910895CF93DF93009709F487C0FC017E
:1029B000329713821282C091D504D091D604209709
:1029C00081F420813181280F391F8091D3049091A7
:1029D000D4048217930779F5F093D404E093D304D9
:1029E0006DC0DE0120E030E0AE17BF0750F4129654
:1029F0004D915C9113979D014115510509F1DA0143
:102A0000F3CFB383A28340815181840F951F8A172E
:102A10009B0771F48D919C911197840F951F0296DD
:102A20009183808312968D919C91139793838283D7
:102A30002115310529F4F093D604E093D5043EC066
:102A4000D9011396FC93EE9312974D915D91A40FCB
:102A5000B51FEA17FB0779F480819181840F951FD8
:102A60000296D90111969C938E938281938113963D
:102A70009C938E931297E0E0F0E08A819B8100970F
:102A800019F0FE01EC01F9CFCE01029628813981BF
:102A9000820F931F2091D3043091D4042817390753
:102AA00069F4309729F41092D6041092D50402C02C
:102AB00013821282D093D404C093D304DF91CF91B8
:102AC0000895A0E0B0E0E7E6F5E10C94FA18EC0117
:102AD000CB01209719F40E943A14B8C0FE01E60F0A
:102AE000F71F9E0122503109E217F30708F4ACC02A
:102AF000D9010D911C91119706171707B8F00530F1
:102B0000110508F49FC0A801445051094617570702
:102B100008F498C002501109061B170B019311937A
:102B20006D937C93CF010E94D2148CC05B01A01ADC
:102B3000B10A4E01800E911EA091D504B091D60429
:102B4000612C712C60E070E0109709F449C0A81561
:102B5000B905C9F5ED90FC901197670142E0C40EEC
:102B6000D11CCA14DB0478F147018A189B08640160
:102B700042E0C40ED11C1296BC9012971396AC91F1
:102B8000B5E0CB16D10440F0B282A383918280825B
:102B9000D9018D939C9309C00E5F1F4F0E0D1F1D11
:102BA000F90111830083EB2DFA2F6115710531F0C6
:102BB000DB011396FC93EE93129744C0F093D60476
:102BC000E093D5043FC06D917C911197661677060E
:102BD00008F43B01BD0112960D90BC91A02DB4CF1D
:102BE0006091D3047091D40468157905E9F46816EE
:102BF0007906D0F440910001509101014115510531
:102C000041F44DB75EB76091040170910501461B18
:102C1000570BE417F507C0F4F093D404E093D30402
:102C2000F901918380830EC00E943A147C010097C1
:102C300059F0A801BE010E942B16CE010E94D214A9
:102C4000C70104C0CE0102C080E090E0CDB7DEB77E
:102C5000EEE00C941619FB01DC0102C001900D920C
:102C600041505040D8F70895FB01DC0101900D92CE
:102C70000020E1F70895FB0151915523A9F0BF0110
:102C8000DC014D9145174111E1F759F4CD01019057
:102C9000002049F04D9140154111C9F3FB0141114C
:102CA000EFCF81E090E0019708954532510520F47F
:102CB000423010F00C946016FB011082CB01089595
:102CC000BB274A3031F4992322F4BDE290958195D7
:102CD0009F4F0C9477164532510520F4423010F086
:102CE0000C947616FB011082CB010895BB27FB01E3
:102CF0005527AA27880F991FAA1FA41710F0A41BF5
:102D000083955051B9F7A05DAA3308F0A95DA1934E
:102D1000009779F7B111B1931192CB010C94E61899
:102D20006F927F929F92AF92BF92CF92DF92EF927B
:102D3000FF920F931F93CF93DF93CDB7DEB7299701
:102D40000FB6F894DEBF0FBECDBF6A01B22E102FB2
:102D50000C3320F4FF24F394F00E02C04CE3F42E65
:102D60000F2D27E0AE014F5F5F4F0E940E18798153
:102D7000272F2970213031F0E1FC06C0E0FC06C0AD
:102D800060E005C06DE203C06BE201C060E2AE2D01
:102D9000A07173FF36C0662311F084E001C083E0A8
:102DA0008B1510F4B81A01C0B12CA1110BC0F6019B
:102DB0008B2D90E2882319F091938150FBCFCB0C9F
:102DC000D11CB12C662331F0F601608396012F5F90
:102DD0003F4F6901C6010396E2FE05C02EE4F601ED
:102DE000208331E404C02EE6F601208331E63183EE
:102DF0002283FC012B2D30E22223F1F1319321506B
:102E0000FBCF72FF40C0662311F084E001C083E075
:102E10008B1510F4B81A01C0B12CA1110BC0F6012A
:102E20008B2D90E2882319F091938150FBCFCB0C2E
:102E3000D11CB12C662331F0F601608396012F5F1F
:102E40003F4F6901C6010396E2FE07C029E4F6017F
:102E500020832EE4218326E406C029E6F6012083A0
:102E60002EE6218326E62283FC012B2D30E222234D
:102E700019F031932150FBCFFC01EB0DF11D1082B5
:102E80008EEF9FEFB7C0B1E0611101C0B0E04B2FF2
:102E900050E01816190624F49C012F5F3F4F02C022
:102EA00021E030E0240F351F112329F0412F50E09D
:102EB0004F5F5F4F02C040E050E0420F531F2B2D89
:102EC00030E04217530714F4B41A01C0B12C2E2D70
:102ED000287159F4F6012B2D30E2222319F0319399
:102EE0002150FBCFCB0CD11CB12CBB2331F0F60110
:102EF000608396012F5F3F4F6901A1110BC0F6015E
:102F00002B2D30E3222319F031932150FBCFCB0C32
:102F1000D11CB12CF80E0A81372F3071A32E74FF0B
:102F200003C0013309F4FA941F142CF42F2D293017
:102F300018F028E001C021E0682F392F97FF02C068
:102F400060E030E0462F532F612C712C3EE2932E2F
:102F5000BC01621B71099B01DC01A41BB50BE1E004
:102F6000F0E0EC0FFD1FAE0FBF1FE12EF12CF1942E
:102F7000E194F1084F3FFFEF5F0731F4F6019082D3
:102F8000B6016F5F7F4F6B01841795074CF02417D4
:102F9000350734F4BD01660D771DFB01118101C0B9
:102FA00010E341505109FFEF6F1A7F0AB6016F5FBE
:102FB0007F4F4E155F0524F0F60110836B01DACFC9
:102FC0004817590739F4063320F4053319F4A110D2
:102FD00001C011E3F6011083FB018B2D90E28823E1
:102FE00019F091938150FBCFFB01EB0DF11D108285
:102FF00080E090E029960FB6F894DEBF0FBECDBFFB
:10300000DF91CF911F910F91FF90EF90DF90CF90C4
:10301000BF90AF909F907F906F900895283008F0F8
:1030200027E03327DA01990F311D87FD9160009663
:103030006105710539F432602E5F3D9330E32A95C6
:10304000E1F708959F3F30F080387105610509F080
:103050003C5F3C5F3D93913008F08068911DDF93A9
:10306000CF931F930F93FF92EF92192F987F96950E
:10307000E92F96959695E90FFF27E45EFE4F992775
:103080003327EE24FF24A701E70105900894079455
:1030900028F4360FE71EF81E491F511D660F771FD3
:1030A000881F991F0694A1F70590079428F4E70E4E
:1030B000F81E491F561FC11D770F881F991F661FD5
:1030C0000694A1F70590079428F4F80E491F561F9F
:1030D000C71FD11D880F991F661F771F0694A1F780
:1030E0000590079420F4490F561FC71FD81F990F4A
:1030F000661F771F881F0694A9F784911095177093
:1031000041F0D695C79557954795F794E7941A954A
:10311000C1F7E2ECF0E06894159015913591659156
:10312000959105907FE27395E118F10A430B560BD8
:10313000C90BD009C0F7E10CF11E431F561FC91F70
:10314000D01D7EF4703311F48A95E6CFE8940150D7
:1031500030F0080F0AF40027021708F4202F2395F7
:10316000022F7A3328F079E37D932A95E9F710C08E
:103170007D932A9589F606949795679537951795C7
:103180001794E118F10A430B560BC90BD00998F0BC
:1031900023957E9173957A3308F070E37C93201326
:1031A000B8F77E9170617D9330F0839571E37D93E4
:1031B00070E32A95E1F71124EF90FF900F911F9192
:1031C000CF91DF91992787FD90950895DC01FC014F
:1031D000672F71917723E1F7329704C07C916D934B
:1031E00070836291AE17BF07C8F308952F923F9284
:1031F0004F925F926F927F928F929F92AF92BF9207
:10320000CF92DF92EF92FF920F931F93CF93DF93B2
:10321000CDB7DEB7CA1BDB0B0FB6F894DEBF0FBE0F
:10322000CDBF09942A88398848885F846E847D845C
:103230008C849B84AA84B984C884DF80EE80FD805E
:103240000C811B81AA81B981CE0FD11D0FB6F894D4
:10325000DEBF0FBECDBFED01089511E0C0ECD1E09F
:1032600004C0FE010E9415142296C23CD107C9F782
:04327000F894FFCF00
:103274000000D7048000476564204F666669636573
:103284003100676564636C69656E747300646966B4
:10329400666E756D62657269733A20006E756D6253
:1032A40065722069732000202D203E6461746131B1
:1032B40000202D203E6461746132006669656C648F
:1032C400313D00266669656C64323D002666696599
:1032D4006C64333D00504F5354202F7570646174F7
:1032E4006520485454502F312E300D0A436F6E6EB2
:1032F400656374696F6E3A20636C6F73650D0A4879
:103304006F73743A206170692E7468696E677370A4
:1033140065616B2E636F6D0D0A582D5448494E47F5
:10332400535045414B4150494B45593A204C455A1D
:10333400485949503139483551363331570D0A43CC
:103344006F6E74656E742D547970653A2061707077
:103354006C69636174696F6E2F782D7777772D664A
:103364006F726D2D75726C656E636F6465640D0AA2
:10337400436F6E74656E742D4C656E6774683A2085
:10338400000D0A0D0A0041542B4349505354415235
:10339400543D22544350222C226170692E74686972
:1033A4006E67737065616B2E636F6D222C38300D00
:1033B4000A0073656E742061205769466920636F43
:1033C4006E6E656374696F6E207265717565737472
:1033D4000041542B43495053454E443D003E004860
:1033E4005454502073656E74206120726571756544
:1033F40073740053454E44204F4B00436F6E6E650B
:103404006374696F6E20776173204F4B00496E635C
:103414006F6D696E6720646174613A00434C4F5369
:103424004544005374617274206F6620746865208B
:103434006C6F6F700048756D69646974793A200027
:1034440020252C2054656D70657261747572653A1F
:1034540020002043656C736975730041542B4357F6
:103464004D4F44453D310D0A0041542B43574A41C9
:10347400503D2200222C2200220D0A0041542B43ED
:10348400494653520D0A005374617475732069736D
:103494003A20004641494C00556E61626C652074C7
:1034A4006F20636F6E6E65637420746F207468653B
:1034B40020696E7465726E657400546865204553A6
:1034C40050383236362077617320636F6E6E6563D1
:1034D40074656420746F2074686520496E74657225
:1034E4006E65740000000000D206A00C3F07B10610
:1034F4002507240700000000240BA00CA60ABF0A1D
:10350400B10A020B6E616E00696E66006F7666002A
:023514002E0087
:00000001FF
